{
  "abi": [
    {
      "inputs": [],
      "name": "testLibraryFunction",
      "outputs": [],
      "stateMutability": "view",
      "type": "function"
    }
  ],
  "bytecode": {
    "object": "0x61016f61003a600b82828239805160001a60731461002d57634e487b7160e01b600052600060045260246000fd5b30600052607381538281f3fe73000000000000000000000000000000000000000030146080604052600436106100355760003560e01c8063f71c1efc1461003a575b600080fd5b610042610044565b005b61007b60405180604001604052806016815260200175546865206c696272617279206973206c6f6767696e6760501b81525061007d565b565b6100c08160405160240161009191906100e4565b60408051601f198184030181529190526020810180516001600160e01b031663104c13eb60e21b1790526100c3565b50565b80516a636f6e736f6c652e6c6f67602083016000808483855afa5050505050565b600060208083528351808285015260005b81811015610111578581018301518582016040015282016100f5565b81811115610123576000604083870101525b50601f01601f191692909201604001939250505056fea26469706673582212203edecb3949228452229ce7119b61f56873021312c61dd1c78c8d68822512075b64736f6c634300080f0033",
    "linkReferences": {}
  },
  "methodIdentifiers": {
    "testLibraryFunction()": "f71c1efc"
  },
  "id": 9
}