{
  "abi": [
    {
      "inputs": [
        {
          "internalType": "string",
          "name": "_greeting",
          "type": "string"
        }
      ],
      "stateMutability": "nonpayable",
      "type": "constructor"
    },
    {
      "inputs": [],
      "name": "greet",
      "outputs": [
        {
          "internalType": "string",
          "name": "",
          "type": "string"
        }
      ],
      "stateMutability": "view",
      "type": "function"
    },
    {
      "inputs": [],
      "name": "greeting",
      "outputs": [
        {
          "internalType": "string",
          "name": "",
          "type": "string"
        }
      ],
      "stateMutability": "view",
      "type": "function"
    }
  ],
  "bytecode": {
    "object": "0x608060405234801561001057600080fd5b5060405161069738038061069783398101604081905261002f91610122565b61005b60405180606001604052806028815260200161066f602891398261006e60201b6101811760201c565b60006100678282610257565b5050610370565b6100b78282604051602401610084929190610342565b60408051601f198184030181529190526020810180516001600160e01b03908116634b5c427760e01b179091526100bb16565b5050565b80516a636f6e736f6c652e6c6f67602083016000808483855afa5050505050565b634e487b7160e01b600052604160045260246000fd5b60005b8381101561010d5781810151838201526020016100f5565b8381111561011c576000848401525b50505050565b60006020828403121561013457600080fd5b81516001600160401b038082111561014b57600080fd5b818401915084601f83011261015f57600080fd5b815181811115610171576101716100dc565b604051601f8201601f19908116603f01168101908382118183101715610199576101996100dc565b816040528281528760208487010111156101b257600080fd5b6101c38360208301602088016100f2565b979650505050505050565b600181811c908216806101e257607f821691505b60208210810361020257634e487b7160e01b600052602260045260246000fd5b50919050565b601f82111561025257600081815260208120601f850160051c8101602086101561022f5750805b601f850160051c820191505b8181101561024e5782815560010161023b565b5050505b505050565b81516001600160401b03811115610270576102706100dc565b6102848161027e84546101ce565b84610208565b602080601f8311600181146102b957600084156102a15750858301515b600019600386901b1c1916600185901b17855561024e565b600085815260208120601f198616915b828110156102e8578886015182559484019460019091019084016102c9565b50858210156103065787850151600019600388901b60f8161c191681555b5050505050600190811b01905550565b6000815180845261032e8160208601602086016100f2565b601f01601f19169290920160200192915050565b6040815260006103556040830185610316565b82810360208401526103678185610316565b95945050505050565b6102f08061037f6000396000f3fe608060405234801561001057600080fd5b50600436106100365760003560e01c8063cfae32171461003b578063ef690cc014610059575b600080fd5b610043610061565b6040516100509190610238565b60405180910390f35b6100436100f3565b60606000805461007090610252565b80601f016020809104026020016040519081016040528092919081815260200182805461009c90610252565b80156100e95780601f106100be576101008083540402835291602001916100e9565b820191906000526020600020905b8154815290600101906020018083116100cc57829003601f168201915b5050505050905090565b6000805461010090610252565b80601f016020809104026020016040519081016040528092919081815260200182805461012c90610252565b80156101795780601f1061014e57610100808354040283529160200191610179565b820191906000526020600020905b81548152906001019060200180831161015c57829003601f168201915b505050505081565b6101c6828260405160240161019792919061028c565b60408051601f198184030181529190526020810180516001600160e01b0316634b5c427760e01b1790526101ca565b5050565b80516a636f6e736f6c652e6c6f67602083016000808483855afa5050505050565b6000815180845260005b81811015610211576020818501810151868301820152016101f5565b81811115610223576000602083870101525b50601f01601f19169290920160200192915050565b60208152600061024b60208301846101eb565b9392505050565b600181811c9082168061026657607f821691505b60208210810361028657634e487b7160e01b600052602260045260246000fd5b50919050565b60408152600061029f60408301856101eb565b82810360208401526102b181856101eb565b9594505050505056fea26469706673582212201ede8f27623f6ab9e48dbba78c72c1eb4e95c531020806f5983be524e9bdb71764736f6c634300080f00334465706c6f79696e67206120436c6f6e6564477265657465722077697468206772656574696e673a",
    "linkReferences": {}
  },
  "methodIdentifiers": {
    "greet()": "cfae3217",
    "greeting()": "ef690cc0"
  },
  "id": 7
}