{
  "_format": "hh-sol-artifact-1",
  "contractName": "Greeter",
  "sourceName": "contracts/Greeter.sol",
  "abi": [
    {
      "inputs": [
        {
          "internalType": "string",
          "name": "_greeting",
          "type": "string"
        }
      ],
      "stateMutability": "nonpayable",
      "type": "constructor"
    },
    {
      "anonymous": false,
      "inputs": [
        {
          "indexed": false,
          "internalType": "address",
          "name": "cloned",
          "type": "address"
        }
      ],
      "name": "NewClonedGreeter",
      "type": "event"
    },
    {
      "inputs": [],
      "name": "doCloning",
      "outputs": [],
      "stateMutability": "nonpayable",
      "type": "function"
    },
    {
      "inputs": [],
      "name": "greet",
      "outputs": [
        {
          "internalType": "string",
          "name": "",
          "type": "string"
        }
      ],
      "stateMutability": "view",
      "type": "function"
    },
    {
      "inputs": [],
      "name": "greeting",
      "outputs": [
        {
          "internalType": "string",
          "name": "",
          "type": "string"
        }
      ],
      "stateMutability": "view",
      "type": "function"
    },
    {
      "inputs": [
        {
          "internalType": "string",
          "name": "_greeting",
          "type": "string"
        }
      ],
      "name": "setGreeting",
      "outputs": [],
      "stateMutability": "nonpayable",
      "type": "function"
    }
  ],
  "bytecode": "0x60806040523480156200001157600080fd5b506040516200194638038062001946833981810160405281019062000037919062000278565b620000676040518060600160405280602281526020016200192460229139826200008760201b620003e21760201c565b80600090805190602001906200007f92919062000156565b5050620004c5565b620001298282604051602401620000a0929190620002fe565b6040516020818303038152906040527f4b5c4277000000000000000000000000000000000000000000000000000000007bffffffffffffffffffffffffffffffffffffffffffffffffffffffff19166020820180517bffffffffffffffffffffffffffffffffffffffffffffffffffffffff83818316178352505050506200012d60201b60201c565b5050565b60008151905060006a636f6e736f6c652e6c6f679050602083016000808483855afa5050505050565b8280546200016490620003ea565b90600052602060002090601f016020900481019282620001885760008555620001d4565b82601f10620001a357805160ff1916838001178555620001d4565b82800160010185558215620001d4579182015b82811115620001d3578251825591602001919060010190620001b6565b5b509050620001e39190620001e7565b5090565b5b8082111562000202576000816000905550600101620001e8565b5090565b60006200021d620002178462000362565b62000339565b9050828152602081018484840111156200023657600080fd5b62000243848285620003b4565b509392505050565b600082601f8301126200025d57600080fd5b81516200026f84826020860162000206565b91505092915050565b6000602082840312156200028b57600080fd5b600082015167ffffffffffffffff811115620002a657600080fd5b620002b4848285016200024b565b91505092915050565b6000620002ca8262000398565b620002d68185620003a3565b9350620002e8818560208601620003b4565b620002f381620004b4565b840191505092915050565b600060408201905081810360008301526200031a8185620002bd565b90508181036020830152620003308184620002bd565b90509392505050565b60006200034562000358565b905062000353828262000420565b919050565b6000604051905090565b600067ffffffffffffffff82111562000380576200037f62000485565b5b6200038b82620004b4565b9050602081019050919050565b600081519050919050565b600082825260208201905092915050565b60005b83811015620003d4578082015181840152602081019050620003b7565b83811115620003e4576000848401525b50505050565b600060028204905060018216806200040357607f821691505b602082108114156200041a576200041962000456565b5b50919050565b6200042b82620004b4565b810181811067ffffffffffffffff821117156200044d576200044c62000485565b5b80604052505050565b7f4e487b7100000000000000000000000000000000000000000000000000000000600052602260045260246000fd5b7f4e487b7100000000000000000000000000000000000000000000000000000000600052604160045260246000fd5b6000601f19601f8301169050919050565b61144f80620004d56000396000f3fe60806040523480156200001157600080fd5b5060043610620000525760003560e01c8063a41368621462000057578063cfae32171462000077578063d73926431462000099578063ef690cc014620000a5575b600080fd5b6200007560048036038101906200006f91906200071b565b620000c7565b005b620000816200019b565b6040516200009091906200085b565b60405180910390f35b620000a362000293565b005b620000af6200034c565b604051620000be91906200085b565b60405180910390f35b6200017f604051806060016040528060238152602001620013f76023913960008054620000f49062000a39565b80601f0160208091040260200160405190810160405280929190818152602001828054620001229062000a39565b8015620001735780601f10620001475761010080835404028352916020019162000173565b820191906000526020600020905b8154815290600101906020018083116200015557829003601f168201915b50505050508362000482565b806000908051906020019062000197929190620005eb565b5050565b606073__$8f1551ddb6659c4f61d022a243d43a4098$__63f71c1efc6040518163ffffffff1660e01b815260040160006040518083038186803b158015620001e257600080fd5b505af4158015620001f7573d6000803e3d6000fd5b50505050600080546200020a9062000a39565b80601f0160208091040260200160405190810160405280929190818152602001828054620002389062000a39565b8015620002895780601f106200025d5761010080835404028352916020019162000289565b820191906000526020600020905b8154815290600101906020018083116200026b57829003601f168201915b5050505050905090565b620002d36040518060400160405280601081526020017f43414c4c45442054484520434c4f4e450000000000000000000000000000000081525062000525565b600080604051620002e4906200067c565b620002f091906200090c565b604051809103906000f0801580156200030d573d6000803e3d6000fd5b5090507f72f478e9ba32657a513692cebf91dec298e080c49b949de9fedbfce95923906d816040516200034191906200083e565b60405180910390a150565b600080546200035b9062000a39565b80601f0160208091040260200160405190810160405280929190818152602001828054620003899062000a39565b8015620003da5780601f10620003ae57610100808354040283529160200191620003da565b820191906000526020600020905b815481529060010190602001808311620003bc57829003601f168201915b505050505081565b6200047e8282604051602401620003fb9291906200087f565b6040516020818303038152906040527f4b5c4277000000000000000000000000000000000000000000000000000000007bffffffffffffffffffffffffffffffffffffffffffffffffffffffff19166020820180517bffffffffffffffffffffffffffffffffffffffffffffffffffffffff8381831617835250505050620005c2565b5050565b620005208383836040516024016200049d93929190620008ba565b6040516020818303038152906040527f2ced7cef000000000000000000000000000000000000000000000000000000007bffffffffffffffffffffffffffffffffffffffffffffffffffffffff19166020820180517bffffffffffffffffffffffffffffffffffffffffffffffffffffffff8381831617835250505050620005c2565b505050565b620005bf816040516024016200053c91906200085b565b6040516020818303038152906040527f41304fac000000000000000000000000000000000000000000000000000000007bffffffffffffffffffffffffffffffffffffffffffffffffffffffff19166020820180517bffffffffffffffffffffffffffffffffffffffffffffffffffffffff8381831617835250505050620005c2565b50565b60008151905060006a636f6e736f6c652e6c6f679050602083016000808483855afa5050505050565b828054620005f99062000a39565b90600052602060002090601f0160209004810192826200061d576000855562000669565b82601f106200063857805160ff191683800117855562000669565b8280016001018555821562000669579182015b82811115620006685782518255916020019190600101906200064b565b5b5090506200067891906200068a565b5090565b6108e28062000b1583390190565b5b80821115620006a55760008160009055506001016200068b565b5090565b6000620006c0620006ba8462000959565b62000930565b905082815260208101848484011115620006d957600080fd5b620006e6848285620009f4565b509392505050565b600082601f8301126200070057600080fd5b813562000712848260208601620006a9565b91505092915050565b6000602082840312156200072e57600080fd5b600082013567ffffffffffffffff8111156200074957600080fd5b6200075784828501620006ee565b91505092915050565b6200076b81620009c0565b82525050565b60006200077e82620009a4565b6200078a8185620009af565b93506200079c81856020860162000a03565b620007a78162000b03565b840191505092915050565b60008154620007c18162000a39565b620007cd8186620009af565b94506001821660008114620007eb5760018114620007fe5762000835565b60ff198316865260208601935062000835565b62000809856200098f565b60005b838110156200082d578154818901526001820191506020810190506200080c565b808801955050505b50505092915050565b600060208201905062000855600083018462000760565b92915050565b6000602082019050818103600083015262000877818462000771565b905092915050565b600060408201905081810360008301526200089b818562000771565b90508181036020830152620008b1818462000771565b90509392505050565b60006060820190508181036000830152620008d6818662000771565b90508181036020830152620008ec818562000771565b9050818103604083015262000902818462000771565b9050949350505050565b60006020820190508181036000830152620009288184620007b2565b905092915050565b60006200093c6200094f565b90506200094a828262000a6f565b919050565b6000604051905090565b600067ffffffffffffffff82111562000977576200097662000ad4565b5b620009828262000b03565b9050602081019050919050565b60008190508160005260206000209050919050565b600081519050919050565b600082825260208201905092915050565b6000620009cd82620009d4565b9050919050565b600073ffffffffffffffffffffffffffffffffffffffff82169050919050565b82818337600083830152505050565b60005b8381101562000a2357808201518184015260208101905062000a06565b8381111562000a33576000848401525b50505050565b6000600282049050600182168062000a5257607f821691505b6020821081141562000a695762000a6862000aa5565b5b50919050565b62000a7a8262000b03565b810181811067ffffffffffffffff8211171562000a9c5762000a9b62000ad4565b5b80604052505050565b7f4e487b7100000000000000000000000000000000000000000000000000000000600052602260045260246000fd5b7f4e487b7100000000000000000000000000000000000000000000000000000000600052604160045260246000fd5b6000601f19601f830116905091905056fe60806040523480156200001157600080fd5b50604051620008e2380380620008e2833981810160405281019062000037919062000278565b62000067604051806060016040528060288152602001620008ba60289139826200008760201b620001971760201c565b80600090805190602001906200007f92919062000156565b5050620004c5565b620001298282604051602401620000a0929190620002fe565b6040516020818303038152906040527f4b5c4277000000000000000000000000000000000000000000000000000000007bffffffffffffffffffffffffffffffffffffffffffffffffffffffff19166020820180517bffffffffffffffffffffffffffffffffffffffffffffffffffffffff83818316178352505050506200012d60201b60201c565b5050565b60008151905060006a636f6e736f6c652e6c6f679050602083016000808483855afa5050505050565b8280546200016490620003ea565b90600052602060002090601f016020900481019282620001885760008555620001d4565b82601f10620001a357805160ff1916838001178555620001d4565b82800160010185558215620001d4579182015b82811115620001d3578251825591602001919060010190620001b6565b5b509050620001e39190620001e7565b5090565b5b8082111562000202576000816000905550600101620001e8565b5090565b60006200021d620002178462000362565b62000339565b9050828152602081018484840111156200023657600080fd5b62000243848285620003b4565b509392505050565b600082601f8301126200025d57600080fd5b81516200026f84826020860162000206565b91505092915050565b6000602082840312156200028b57600080fd5b600082015167ffffffffffffffff811115620002a657600080fd5b620002b4848285016200024b565b91505092915050565b6000620002ca8262000398565b620002d68185620003a3565b9350620002e8818560208601620003b4565b620002f381620004b4565b840191505092915050565b600060408201905081810360008301526200031a8185620002bd565b90508181036020830152620003308184620002bd565b90509392505050565b60006200034562000358565b905062000353828262000420565b919050565b6000604051905090565b600067ffffffffffffffff82111562000380576200037f62000485565b5b6200038b82620004b4565b9050602081019050919050565b600081519050919050565b600082825260208201905092915050565b60005b83811015620003d4578082015181840152602081019050620003b7565b83811115620003e4576000848401525b50505050565b600060028204905060018216806200040357607f821691505b602082108114156200041a576200041962000456565b5b50919050565b6200042b82620004b4565b810181811067ffffffffffffffff821117156200044d576200044c62000485565b5b80604052505050565b7f4e487b7100000000000000000000000000000000000000000000000000000000600052602260045260246000fd5b7f4e487b7100000000000000000000000000000000000000000000000000000000600052604160045260246000fd5b6000601f19601f8301169050919050565b6103e580620004d56000396000f3fe608060405234801561001057600080fd5b50600436106100365760003560e01c8063cfae32171461003b578063ef690cc014610059575b600080fd5b610043610077565b6040516100509190610295565b60405180910390f35b610061610109565b60405161006e9190610295565b60405180910390f35b6060600080546100869061033d565b80601f01602080910402602001604051908101604052809291908181526020018280546100b29061033d565b80156100ff5780601f106100d4576101008083540402835291602001916100ff565b820191906000526020600020905b8154815290600101906020018083116100e257829003601f168201915b5050505050905090565b600080546101169061033d565b80601f01602080910402602001604051908101604052809291908181526020018280546101429061033d565b801561018f5780601f106101645761010080835404028352916020019161018f565b820191906000526020600020905b81548152906001019060200180831161017257829003601f168201915b505050505081565b61022f82826040516024016101ad9291906102b7565b6040516020818303038152906040527f4b5c4277000000000000000000000000000000000000000000000000000000007bffffffffffffffffffffffffffffffffffffffffffffffffffffffff19166020820180517bffffffffffffffffffffffffffffffffffffffffffffffffffffffff8381831617835250505050610233565b5050565b60008151905060006a636f6e736f6c652e6c6f679050602083016000808483855afa5050505050565b6000610267826102ee565b61027181856102f9565b935061028181856020860161030a565b61028a8161039e565b840191505092915050565b600060208201905081810360008301526102af818461025c565b905092915050565b600060408201905081810360008301526102d1818561025c565b905081810360208301526102e5818461025c565b90509392505050565b600081519050919050565b600082825260208201905092915050565b60005b8381101561032857808201518184015260208101905061030d565b83811115610337576000848401525b50505050565b6000600282049050600182168061035557607f821691505b602082108114156103695761036861036f565b5b50919050565b7f4e487b7100000000000000000000000000000000000000000000000000000000600052602260045260246000fd5b6000601f19601f830116905091905056fea2646970667358221220fa6b1a8c2119a78a04142ad233a5dbfb8b20e3af9a360882a3c9eec625c1e39964736f6c634300080400334465706c6f79696e67206120436c6f6e6564477265657465722077697468206772656574696e673a4368616e67696e67206772656574696e672066726f6d202725732720746f2027257327a26469706673582212208d3eeb23a56ff9ab93704aa19c929e023b686fafcfed1f6f37c61429a9f38b1d64736f6c634300080400334465706c6f79696e67206120477265657465722077697468206772656574696e673a",
  "linkReferences": {
    "contracts/Library.sol": {
      "Library": [
        {
          "length": 20,
          "start": 1652
        }
      ]
    }
  },
  "deployedLinkReferences": {
    "contracts/Library.sol": {
      "Library": [
        {
          "length": 20,
          "start": 415
        }
      ]
    }
  }
}