{"_format":"hh-sol-artifact-1","contractName":"DiamondWipeAndPaveFacet","sourceName":"contracts/facets/DiamondWipeAndPaveFacet.sol","abi":[{"inputs":[{"internalType":"bytes4","name":"_selector","type":"bytes4"}],"name":"CannotAddFunctionToDiamondThatAlreadyExists","type":"error"},{"inputs":[{"internalType":"bytes4[]","name":"_selectors","type":"bytes4[]"}],"name":"CannotAddSelectorsToZeroAddress","type":"error"},{"inputs":[{"internalType":"bytes4","name":"_selector","type":"bytes4"}],"name":"CannotRemoveFunctionThatDoesNotExist","type":"error"},{"inputs":[{"internalType":"bytes4","name":"_selector","type":"bytes4"}],"name":"CannotRemoveImmutableFunction","type":"error"},{"inputs":[{"internalType":"bytes4","name":"_selector","type":"bytes4"}],"name":"CannotReplaceFunctionThatDoesNotExists","type":"error"},{"inputs":[{"internalType":"bytes4","name":"_selector","type":"bytes4"}],"name":"CannotReplaceFunctionWithTheSameFunctionFromTheSameFacet","type":"error"},{"inputs":[{"internalType":"bytes4[]","name":"_selectors","type":"bytes4[]"}],"name":"CannotReplaceFunctionsFromFacetWithZeroAddress","type":"error"},{"inputs":[{"internalType":"bytes4","name":"_selector","type":"bytes4"}],"name":"CannotReplaceImmutableFunction","type":"error"},{"inputs":[{"internalType":"uint8","name":"_action","type":"uint8"}],"name":"IncorrectFacetCutAction","type":"error"},{"inputs":[{"internalType":"address","name":"_initializationContractAddress","type":"address"},{"internalType":"bytes","name":"_calldata","type":"bytes"}],"name":"InitializationFunctionReverted","type":"error"},{"inputs":[{"internalType":"address","name":"_contractAddress","type":"address"},{"internalType":"string","name":"_message","type":"string"}],"name":"NoBytecodeAtAddress","type":"error"},{"inputs":[{"internalType":"address","name":"_facetAddress","type":"address"}],"name":"NoSelectorsProvidedForFacetForCut","type":"error"},{"inputs":[{"internalType":"address","name":"_user","type":"address"},{"internalType":"address","name":"_contractOwner","type":"address"}],"name":"NotContractOwner","type":"error"},{"inputs":[{"internalType":"address","name":"_facetAddress","type":"address"}],"name":"RemoveFacetAddressMustBeZeroAddress","type":"error"},{"anonymous":false,"inputs":[{"components":[{"internalType":"address","name":"facetAddress","type":"address"},{"internalType":"enum IDiamond.FacetCutAction","name":"action","type":"uint8"},{"internalType":"bytes4[]","name":"functionSelectors","type":"bytes4[]"}],"indexed":false,"internalType":"struct IDiamond.FacetCut[]","name":"_diamondCut","type":"tuple[]"},{"indexed":false,"internalType":"address","name":"_init","type":"address"},{"indexed":false,"internalType":"bytes","name":"_calldata","type":"bytes"}],"name":"DiamondCut","type":"event"},{"inputs":[{"components":[{"internalType":"address","name":"facetAddress","type":"address"},{"internalType":"enum IDiamond.FacetCutAction","name":"action","type":"uint8"},{"internalType":"bytes4[]","name":"functionSelectors","type":"bytes4[]"}],"internalType":"struct IDiamond.FacetCut[]","name":"_diamondCut","type":"tuple[]"},{"internalType":"address","name":"_init","type":"address"},{"internalType":"bytes","name":"_calldata","type":"bytes"}],"name":"diamondWipeAndPave","outputs":[],"stateMutability":"nonpayable","type":"function"}],"bytecode":"0x608060405234801561001057600080fd5b5061210c806100206000396000f3fe608060405234801561001057600080fd5b506004361061002b5760003560e01c80636721e69214610030575b600080fd5b61004a60048036038101906100459190611595565b61004c565b005b610054610426565b600061005e6104f0565b905060005b81600101805490508110156103c257600082600101828154811061008a5761008961162a565b5b90600052602060002090600891828204019190066004029054906101000a900460e01b90503073ffffffffffffffffffffffffffffffffffffffff16836000016000837bffffffffffffffffffffffffffffffffffffffffffffffffffffffff19167bffffffffffffffffffffffffffffffffffffffffffffffffffffffff1916815260200190815260200160002060000160009054906101000a900473ffffffffffffffffffffffffffffffffffffffff1673ffffffffffffffffffffffffffffffffffffffff161461036e5782600101600184600101805490506101709190611692565b815481106101815761018061162a565b5b90600052602060002090600891828204019190066004029054906101000a900460e01b8360010183815481106101ba576101b961162a565b5b90600052602060002090600891828204019190066004026101000a81548163ffffffff021916908360e01c0217905550818360000160008560010185815481106102075761020661162a565b5b90600052602060002090600891828204019190066004029054906101000a900460e01b7bffffffffffffffffffffffffffffffffffffffffffffffffffffffff19167bffffffffffffffffffffffffffffffffffffffffffffffffffffffff1916815260200190815260200160002060000160146101000a81548161ffff021916908361ffff160217905550826001018054806102a7576102a66116c6565b5b60019003818190600052602060002090600891828204019190066004026101000a81549063ffffffff02191690559055826000016000827bffffffffffffffffffffffffffffffffffffffffffffffffffffffff19167bffffffffffffffffffffffffffffffffffffffffffffffffffffffff19168152602001908152602001600020600080820160006101000a81549073ffffffffffffffffffffffffffffffffffffffff02191690556000820160146101000a81549061ffff021916905550506103bc565b6103ad6040518060400160405280600e81526020017f63616e6e6f74207265706c6163650000000000000000000000000000000000008152508361051d565b81806103b8906116f5565b9250505b50610063565b5061041e8686906103d39190611a46565b8585858080601f016020809104026020016040519081016040528093929190818152602001838380828437600081840152601f19601f820116905080830192505050505050506105b9565b505050505050565b61042e6104f0565b60030160009054906101000a900473ffffffffffffffffffffffffffffffffffffffff1673ffffffffffffffffffffffffffffffffffffffff163373ffffffffffffffffffffffffffffffffffffffff16146104ee573361048d6104f0565b60030160009054906101000a900473ffffffffffffffffffffffffffffffffffffffff166040517fff4127cb0000000000000000000000000000000000000000000000000000000081526004016104e5929190611a6a565b60405180910390fd5b565b6000807fc8fcad8db84d3cc18b4c41d551ea0ee66dd599cde068d998e57d5e09332c131c90508091505090565b6105b58282604051602401610533929190611b21565b6040516020818303038152906040527fb60e72cc000000000000000000000000000000000000000000000000000000007bffffffffffffffffffffffffffffffffffffffffffffffffffffffff19166020820180517bffffffffffffffffffffffffffffffffffffffffffffffffffffffff83818316178352505050506107d6565b5050565b60005b835181101561078b5760008482815181106105da576105d961162a565b5b602002602001015160400151905060008583815181106105fd576105fc61162a565b5b6020026020010151600001519050600082510361065157806040517fe767f91f0000000000000000000000000000000000000000000000000000000081526004016106489190611b51565b60405180910390fd5b60008684815181106106665761066561162a565b5b60200260200101516020015190506000600281111561068857610687611b6c565b5b81600281111561069b5761069a611b6c565b5b036106af576106aa82846107ff565b610775565b600160028111156106c3576106c2611b6c565b5b8160028111156106d6576106d5611b6c565b5b036106ea576106e58284610b27565b610774565b6002808111156106fd576106fc611b6c565b5b8160028111156107105761070f611b6c565b5b036107245761071f8284610e6d565b610773565b80600281111561073757610736611b6c565b5b6040517f7fe9a41e00000000000000000000000000000000000000000000000000000000815260040161076a9190611bb7565b60405180910390fd5b5b5b5050508080610783906116f5565b9150506105bc565b507f8faa70878671ccd212d20771b795c50af8fd3ff6cf27f4bde57e5d4de0aeb6738383836040516107bf93929190611e4e565b60405180910390a16107d182826112f4565b505050565b60008151905060006a636f6e736f6c652e6c6f679050602083016000808483855afa5050505050565b600073ffffffffffffffffffffffffffffffffffffffff168273ffffffffffffffffffffffffffffffffffffffff160361087057806040517f0ae3681c0000000000000000000000000000000000000000000000000000000081526004016108679190611f02565b60405180910390fd5b600061087a6104f0565b90506000816001018054905090506108aa8460405180606001604052806024815260200161206360249139611416565b60005b8351811015610b205760008482815181106108cb576108ca61162a565b5b602002602001015190506000846000016000837bffffffffffffffffffffffffffffffffffffffffffffffffffffffff19167bffffffffffffffffffffffffffffffffffffffffffffffffffffffff1916815260200190815260200160002060000160009054906101000a900473ffffffffffffffffffffffffffffffffffffffff169050600073ffffffffffffffffffffffffffffffffffffffff168173ffffffffffffffffffffffffffffffffffffffff16146109c157816040517febbf5d070000000000000000000000000000000000000000000000000000000081526004016109b89190611f33565b60405180910390fd5b60405180604001604052808873ffffffffffffffffffffffffffffffffffffffff1681526020018561ffff16815250856000016000847bffffffffffffffffffffffffffffffffffffffffffffffffffffffff19167bffffffffffffffffffffffffffffffffffffffffffffffffffffffff1916815260200190815260200160002060008201518160000160006101000a81548173ffffffffffffffffffffffffffffffffffffffff021916908373ffffffffffffffffffffffffffffffffffffffff16021790555060208201518160000160146101000a81548161ffff021916908361ffff160217905550905050846001018290806001815401808255809150506001900390600052602060002090600891828204019190066004029091909190916101000a81548163ffffffff021916908360e01c02179055508380610b0890611f5c565b94505050508080610b18906116f5565b9150506108ad565b5050505050565b6000610b316104f0565b9050600073ffffffffffffffffffffffffffffffffffffffff168373ffffffffffffffffffffffffffffffffffffffff1603610ba457816040517fcd98a96f000000000000000000000000000000000000000000000000000000008152600401610b9b9190611f02565b60405180910390fd5b610bc6836040518060600160405280602881526020016120af60289139611416565b60005b8251811015610e67576000838281518110610be757610be661162a565b5b602002602001015190506000836000016000837bffffffffffffffffffffffffffffffffffffffffffffffffffffffff19167bffffffffffffffffffffffffffffffffffffffffffffffffffffffff1916815260200190815260200160002060000160009054906101000a900473ffffffffffffffffffffffffffffffffffffffff1690503073ffffffffffffffffffffffffffffffffffffffff168173ffffffffffffffffffffffffffffffffffffffff1603610cdc57816040517f520300da000000000000000000000000000000000000000000000000000000008152600401610cd39190611f33565b60405180910390fd5b8573ffffffffffffffffffffffffffffffffffffffff168173ffffffffffffffffffffffffffffffffffffffff1603610d4c57816040517f358d9d1a000000000000000000000000000000000000000000000000000000008152600401610d439190611f33565b60405180910390fd5b600073ffffffffffffffffffffffffffffffffffffffff168173ffffffffffffffffffffffffffffffffffffffff1603610dbd57816040517f7479f939000000000000000000000000000000000000000000000000000000008152600401610db49190611f33565b60405180910390fd5b85846000016000847bffffffffffffffffffffffffffffffffffffffffffffffffffffffff19167bffffffffffffffffffffffffffffffffffffffffffffffffffffffff1916815260200190815260200160002060000160006101000a81548173ffffffffffffffffffffffffffffffffffffffff021916908373ffffffffffffffffffffffffffffffffffffffff16021790555050508080610e5f906116f5565b915050610bc9565b50505050565b6000610e776104f0565b9050600081600101805490509050600073ffffffffffffffffffffffffffffffffffffffff168473ffffffffffffffffffffffffffffffffffffffff1614610ef657836040517fd091bc81000000000000000000000000000000000000000000000000000000008152600401610eed9190611b51565b60405180910390fd5b60005b83518110156112ed576000848281518110610f1757610f1661162a565b5b602002602001015190506000846000016000837bffffffffffffffffffffffffffffffffffffffffffffffffffffffff19167bffffffffffffffffffffffffffffffffffffffffffffffffffffffff191681526020019081526020016000206040518060400160405290816000820160009054906101000a900473ffffffffffffffffffffffffffffffffffffffff1673ffffffffffffffffffffffffffffffffffffffff1673ffffffffffffffffffffffffffffffffffffffff1681526020016000820160149054906101000a900461ffff1661ffff1661ffff16815250509050600073ffffffffffffffffffffffffffffffffffffffff16816000015173ffffffffffffffffffffffffffffffffffffffff160361106e57816040517f7a08a22d0000000000000000000000000000000000000000000000000000000081526004016110659190611f33565b60405180910390fd5b3073ffffffffffffffffffffffffffffffffffffffff16816000015173ffffffffffffffffffffffffffffffffffffffff16036110e257816040517f6fafeb080000000000000000000000000000000000000000000000000000000081526004016110d99190611f33565b60405180910390fd5b83806110ed90611f86565b94505083816020015161ffff16146112025760008560010185815481106111175761111661162a565b5b90600052602060002090600891828204019190066004029054906101000a900460e01b90508086600101836020015161ffff168154811061115b5761115a61162a565b5b90600052602060002090600891828204019190066004026101000a81548163ffffffff021916908360e01c02179055508160200151866000016000837bffffffffffffffffffffffffffffffffffffffffffffffffffffffff19167bffffffffffffffffffffffffffffffffffffffffffffffffffffffff1916815260200190815260200160002060000160146101000a81548161ffff021916908361ffff160217905550505b84600101805480611216576112156116c6565b5b60019003818190600052602060002090600891828204019190066004026101000a81549063ffffffff02191690559055846000016000837bffffffffffffffffffffffffffffffffffffffffffffffffffffffff19167bffffffffffffffffffffffffffffffffffffffffffffffffffffffff19168152602001908152602001600020600080820160006101000a81549073ffffffffffffffffffffffffffffffffffffffff02191690556000820160146101000a81549061ffff02191690555050505080806112e5906116f5565b915050610ef9565b5050505050565b600073ffffffffffffffffffffffffffffffffffffffff168273ffffffffffffffffffffffffffffffffffffffff1603156114125761134b8260405180606001604052806028815260200161208760289139611416565b6000808373ffffffffffffffffffffffffffffffffffffffff16836040516113739190611feb565b600060405180830381855af49150503d80600081146113ae576040519150601f19603f3d011682016040523d82523d6000602084013e6113b3565b606091505b50915091508161140f576000815111156113d05780518082602001fd5b83836040517f192105d7000000000000000000000000000000000000000000000000000000008152600401611406929190612002565b60405180910390fd5b50505b5050565b6000823b9050600081036114635782826040517f919834b900000000000000000000000000000000000000000000000000000000815260040161145a929190612032565b60405180910390fd5b505050565b6000604051905090565b600080fd5b600080fd5b600080fd5b600080fd5b600080fd5b60008083601f8401126114a1576114a061147c565b5b8235905067ffffffffffffffff8111156114be576114bd611481565b5b6020830191508360208202830111156114da576114d9611486565b5b9250929050565b600073ffffffffffffffffffffffffffffffffffffffff82169050919050565b600061150c826114e1565b9050919050565b61151c81611501565b811461152757600080fd5b50565b60008135905061153981611513565b92915050565b60008083601f8401126115555761155461147c565b5b8235905067ffffffffffffffff81111561157257611571611481565b5b60208301915083600182028301111561158e5761158d611486565b5b9250929050565b6000806000806000606086880312156115b1576115b0611472565b5b600086013567ffffffffffffffff8111156115cf576115ce611477565b5b6115db8882890161148b565b955095505060206115ee8882890161152a565b935050604086013567ffffffffffffffff81111561160f5761160e611477565b5b61161b8882890161153f565b92509250509295509295909350565b7f4e487b7100000000000000000000000000000000000000000000000000000000600052603260045260246000fd5b6000819050919050565b7f4e487b7100000000000000000000000000000000000000000000000000000000600052601160045260246000fd5b600061169d82611659565b91506116a883611659565b92508282039050818111156116c0576116bf611663565b5b92915050565b7f4e487b7100000000000000000000000000000000000000000000000000000000600052603160045260246000fd5b600061170082611659565b91507fffffffffffffffffffffffffffffffffffffffffffffffffffffffffffffffff820361173257611731611663565b5b600182019050919050565b6000601f19601f8301169050919050565b7f4e487b7100000000000000000000000000000000000000000000000000000000600052604160045260246000fd5b6117868261173d565b810181811067ffffffffffffffff821117156117a5576117a461174e565b5b80604052505050565b60006117b8611468565b90506117c4828261177d565b919050565b600067ffffffffffffffff8211156117e4576117e361174e565b5b602082029050602081019050919050565b600080fd5b600080fd5b6003811061180c57600080fd5b50565b60008135905061181e816117ff565b92915050565b600067ffffffffffffffff82111561183f5761183e61174e565b5b602082029050602081019050919050565b60007fffffffff0000000000000000000000000000000000000000000000000000000082169050919050565b61188581611850565b811461189057600080fd5b50565b6000813590506118a28161187c565b92915050565b60006118bb6118b684611824565b6117ae565b905080838252602082019050602084028301858111156118de576118dd611486565b5b835b8181101561190757806118f38882611893565b8452602084019350506020810190506118e0565b5050509392505050565b600082601f8301126119265761192561147c565b5b81356119368482602086016118a8565b91505092915050565b600060608284031215611955576119546117f5565b5b61195f60606117ae565b9050600061196f8482850161152a565b60008301525060206119838482850161180f565b602083015250604082013567ffffffffffffffff8111156119a7576119a66117fa565b5b6119b384828501611911565b60408301525092915050565b60006119d26119cd846117c9565b6117ae565b905080838252602082019050602084028301858111156119f5576119f4611486565b5b835b81811015611a3c57803567ffffffffffffffff811115611a1a57611a1961147c565b5b808601611a27898261193f565b855260208501945050506020810190506119f7565b5050509392505050565b6000611a533684846119bf565b905092915050565b611a6481611501565b82525050565b6000604082019050611a7f6000830185611a5b565b611a8c6020830184611a5b565b9392505050565b600081519050919050565b600082825260208201905092915050565b60005b83811015611acd578082015181840152602081019050611ab2565b60008484015250505050565b6000611ae482611a93565b611aee8185611a9e565b9350611afe818560208601611aaf565b611b078161173d565b840191505092915050565b611b1b81611659565b82525050565b60006040820190508181036000830152611b3b8185611ad9565b9050611b4a6020830184611b12565b9392505050565b6000602082019050611b666000830184611a5b565b92915050565b7f4e487b7100000000000000000000000000000000000000000000000000000000600052602160045260246000fd5b600060ff82169050919050565b611bb181611b9b565b82525050565b6000602082019050611bcc6000830184611ba8565b92915050565b600081519050919050565b600082825260208201905092915050565b6000819050602082019050919050565b611c0781611501565b82525050565b60038110611c1e57611c1d611b6c565b5b50565b6000819050611c2f82611c0d565b919050565b6000611c3f82611c21565b9050919050565b611c4f81611c34565b82525050565b600081519050919050565b600082825260208201905092915050565b6000819050602082019050919050565b611c8a81611850565b82525050565b6000611c9c8383611c81565b60208301905092915050565b6000602082019050919050565b6000611cc082611c55565b611cca8185611c60565b9350611cd583611c71565b8060005b83811015611d06578151611ced8882611c90565b9750611cf883611ca8565b925050600181019050611cd9565b5085935050505092915050565b6000606083016000830151611d2b6000860182611bfe565b506020830151611d3e6020860182611c46565b5060408301518482036040860152611d568282611cb5565b9150508091505092915050565b6000611d6f8383611d13565b905092915050565b6000602082019050919050565b6000611d8f82611bd2565b611d998185611bdd565b935083602082028501611dab85611bee565b8060005b85811015611de75784840389528151611dc88582611d63565b9450611dd383611d77565b925060208a01995050600181019050611daf565b50829750879550505050505092915050565b600081519050919050565b600082825260208201905092915050565b6000611e2082611df9565b611e2a8185611e04565b9350611e3a818560208601611aaf565b611e438161173d565b840191505092915050565b60006060820190508181036000830152611e688186611d84565b9050611e776020830185611a5b565b8181036040830152611e898184611e15565b9050949350505050565b600082825260208201905092915050565b6000611eaf82611c55565b611eb98185611e93565b9350611ec483611c71565b8060005b83811015611ef5578151611edc8882611c90565b9750611ee783611ca8565b925050600181019050611ec8565b5085935050505092915050565b60006020820190508181036000830152611f1c8184611ea4565b905092915050565b611f2d81611850565b82525050565b6000602082019050611f486000830184611f24565b92915050565b600061ffff82169050919050565b6000611f6782611f4e565b915061ffff8203611f7b57611f7a611663565b5b600182019050919050565b6000611f9182611659565b915060008203611fa457611fa3611663565b5b600182039050919050565b600081905092915050565b6000611fc582611df9565b611fcf8185611faf565b9350611fdf818560208601611aaf565b80840191505092915050565b6000611ff78284611fba565b915081905092915050565b60006040820190506120176000830185611a5b565b81810360208301526120298184611e15565b90509392505050565b60006040820190506120476000830185611a5b565b81810360208301526120598184611ad9565b9050939250505056fe4c69624469616d6f6e644375743a2041646420666163657420686173206e6f20636f64654c69624469616d6f6e644375743a205f696e6974206164647265737320686173206e6f20636f64654c69624469616d6f6e644375743a205265706c61636520666163657420686173206e6f20636f6465a26469706673582212204ebcdb9f549cb7441c832bf803b21f74d9c9d15fac22ac3e5ff60783df9e72b764736f6c63430008110033","linkReferences":{},"deployedLinkReferences":{},"source":{"solcVersion":"0.8.17+commit.8df45f5f","input":"{\"language\":\"Solidity\",\"sources\":{\"contracts/facets/DiamondWipeAndPaveFacet.sol\":{\"content\":\"// SPDX-License-Identifier: CC0-1.0\\npragma solidity ^0.8.0;\\n\\n/******************************************************************************\\\\\\n* Author: Daniel Beal <git@dbeal.dev>, Github: @dbeal-eth\\n/******************************************************************************/\\n\\nimport { IDiamondWipeAndPave } from \\\"../interfaces/IDiamondWipeAndPave.sol\\\";\\nimport { LibDiamond } from \\\"../libraries/LibDiamond.sol\\\";\\n\\nimport \\\"hardhat/console.sol\\\";\\n\\ncontract DiamondWipeAndPaveFacet is IDiamondWipeAndPave {\\n    /// @notice Completely replaces the entire diamond with a new set of facets. For use with tooling that\\n\\t\\t/// does not benefit from specific cutting or cannot know previous state effectively.\\n\\t\\t/// will not pave immutable functions (ie, functions defined on the diamond itself).\\n    /// @param _diamondCut Contains the facet addresses and function selectors. All operations should be `Add`\\n    /// @param _init The address of the contract or facet to execute _calldata\\n    /// @param _calldata A function call, including function selector and arguments\\n    ///                  _calldata is executed with delegatecall on _init\\n    function diamondWipeAndPave(\\n        FacetCut[] calldata _diamondCut,\\n        address _init,\\n        bytes calldata _calldata\\n    ) external override {\\n\\t\\t\\t\\tLibDiamond.enforceIsContractOwner();\\n        LibDiamond.DiamondStorage storage ds = LibDiamond.diamondStorage();\\n\\t\\t\\t\\tfor (uint256 i = 0;i < ds.selectors.length;) {\\n\\t\\t\\t\\t\\tbytes4 deleteSelector = ds.selectors[i];\\n\\t\\t\\t\\t\\tif (ds.facetAddressAndSelectorPosition[deleteSelector].facetAddress != address(this)) {\\n\\t\\t\\t\\t\\t\\tds.selectors[i] = ds.selectors[ds.selectors.length - 1];\\n\\t\\t\\t\\t\\t\\tds.facetAddressAndSelectorPosition[ds.selectors[i]].selectorPosition = uint16(i);\\n            ds.selectors.pop();\\n\\t\\t\\t\\t\\t\\tdelete ds.facetAddressAndSelectorPosition[deleteSelector];\\n\\t\\t\\t\\t\\t} else {\\n\\t\\t\\t\\t\\t\\tconsole.log(\\\"cannot replace\\\", i);\\n\\t\\t\\t\\t\\t\\ti++;\\n\\t\\t\\t\\t\\t}\\n\\t\\t\\t\\t}\\n        LibDiamond.diamondCut(_diamondCut, _init, _calldata);\\n    }\\n}\\n\"},\"contracts/interfaces/IDiamondWipeAndPave.sol\":{\"content\":\"// SPDX-License-Identifier: CC0-1.0\\npragma solidity ^0.8.0;\\n\\n/******************************************************************************\\\\\\n* Author: Daniel Beal <git@dbeal.dev>, Github: @dbeal-eth\\n/******************************************************************************/\\n\\nimport { IDiamond } from \\\"./IDiamond.sol\\\";\\n\\ninterface IDiamondWipeAndPave is IDiamond {    \\n\\n    /// @notice Completely replaces the entire diamond with a new set of facets. For use with tooling that\\n\\t\\t/// does not benefit from specific cutting or cannot know previous state effectively.\\n\\t\\t/// will not pave immutable functions (ie, functions defined on the diamond itself).\\n    /// @param _diamondCut Contains the facet addresses and function selectors. All operations should be `Add`\\n    /// @param _init The address of the contract or facet to execute _calldata\\n    /// @param _calldata A function call, including function selector and arguments\\n    ///                  _calldata is executed with delegatecall on _init\\n    function diamondWipeAndPave(\\n        FacetCut[] calldata _diamondCut,\\n        address _init,\\n        bytes calldata _calldata\\n    ) external;    \\n}\\n\"},\"contracts/libraries/LibDiamond.sol\":{\"content\":\"// SPDX-License-Identifier: CC0-1.0\\npragma solidity ^0.8.0;\\n\\n/******************************************************************************\\\\\\n* Author: Nick Mudge <nick@perfectabstractions.com>, Twitter/Github: @mudgen\\n* EIP-2535 Diamonds\\n/******************************************************************************/\\nimport { IDiamond } from \\\"../interfaces/IDiamond.sol\\\";\\nimport { IDiamondCut } from \\\"../interfaces/IDiamondCut.sol\\\";\\n\\n// Remember to add the loupe functions from DiamondLoupeFacet to the diamond.\\n// The loupe functions are required by the EIP2535 Diamonds standard\\n\\nerror NoSelectorsGivenToAdd();\\nerror NotContractOwner(address _user, address _contractOwner);\\nerror NoSelectorsProvidedForFacetForCut(address _facetAddress);\\nerror CannotAddSelectorsToZeroAddress(bytes4[] _selectors);\\nerror NoBytecodeAtAddress(address _contractAddress, string _message);\\nerror IncorrectFacetCutAction(uint8 _action);\\nerror CannotAddFunctionToDiamondThatAlreadyExists(bytes4 _selector);\\nerror CannotReplaceFunctionsFromFacetWithZeroAddress(bytes4[] _selectors);\\nerror CannotReplaceImmutableFunction(bytes4 _selector);\\nerror CannotReplaceFunctionWithTheSameFunctionFromTheSameFacet(bytes4 _selector);\\nerror CannotReplaceFunctionThatDoesNotExists(bytes4 _selector);\\nerror RemoveFacetAddressMustBeZeroAddress(address _facetAddress);\\nerror CannotRemoveFunctionThatDoesNotExist(bytes4 _selector);\\nerror CannotRemoveImmutableFunction(bytes4 _selector);\\nerror InitializationFunctionReverted(address _initializationContractAddress, bytes _calldata);\\n\\nlibrary LibDiamond {\\n    bytes32 constant DIAMOND_STORAGE_POSITION = keccak256(\\\"diamond.standard.diamond.storage\\\");\\n\\n    struct FacetAddressAndSelectorPosition {\\n        address facetAddress;\\n        uint16 selectorPosition;\\n    }\\n\\n    struct DiamondStorage {\\n        // function selector => facet address and selector position in selectors array\\n        mapping(bytes4 => FacetAddressAndSelectorPosition) facetAddressAndSelectorPosition;\\n        bytes4[] selectors;\\n        mapping(bytes4 => bool) supportedInterfaces;\\n        // owner of the contract\\n        address contractOwner;\\n    }\\n\\n    function diamondStorage() internal pure returns (DiamondStorage storage ds) {\\n        bytes32 position = DIAMOND_STORAGE_POSITION;\\n        assembly {\\n            ds.slot := position\\n        }\\n    }\\n\\n    event OwnershipTransferred(address indexed previousOwner, address indexed newOwner);\\n\\n    function setContractOwner(address _newOwner) internal {\\n        DiamondStorage storage ds = diamondStorage();\\n        address previousOwner = ds.contractOwner;\\n        ds.contractOwner = _newOwner;\\n        emit OwnershipTransferred(previousOwner, _newOwner);\\n    }\\n\\n    function contractOwner() internal view returns (address contractOwner_) {\\n        contractOwner_ = diamondStorage().contractOwner;\\n    }\\n\\n    function enforceIsContractOwner() internal view {\\n        if(msg.sender != diamondStorage().contractOwner) {\\n            revert NotContractOwner(msg.sender, diamondStorage().contractOwner);\\n        }        \\n    }\\n\\n    event DiamondCut(IDiamondCut.FacetCut[] _diamondCut, address _init, bytes _calldata);\\n\\n    // Internal function version of diamondCut\\n    function diamondCut(\\n        IDiamondCut.FacetCut[] memory _diamondCut,\\n        address _init,\\n        bytes memory _calldata\\n    ) internal {\\n        for (uint256 facetIndex; facetIndex < _diamondCut.length; facetIndex++) {\\n            bytes4[] memory functionSelectors = _diamondCut[facetIndex].functionSelectors;\\n            address facetAddress = _diamondCut[facetIndex].facetAddress;\\n            if(functionSelectors.length == 0) {\\n                revert NoSelectorsProvidedForFacetForCut(facetAddress);\\n            }\\n            IDiamondCut.FacetCutAction action = _diamondCut[facetIndex].action;\\n            if (action == IDiamond.FacetCutAction.Add) {\\n                addFunctions(facetAddress, functionSelectors);\\n            } else if (action == IDiamond.FacetCutAction.Replace) {\\n                replaceFunctions(facetAddress, functionSelectors);\\n            } else if (action == IDiamond.FacetCutAction.Remove) {\\n                removeFunctions(facetAddress, functionSelectors);\\n            } else {\\n                revert IncorrectFacetCutAction(uint8(action));\\n            }\\n        }\\n        emit DiamondCut(_diamondCut, _init, _calldata);\\n        initializeDiamondCut(_init, _calldata);\\n    }\\n\\n    function addFunctions(address _facetAddress, bytes4[] memory _functionSelectors) internal {        \\n        if(_facetAddress == address(0)) {\\n            revert CannotAddSelectorsToZeroAddress(_functionSelectors);\\n        }\\n        DiamondStorage storage ds = diamondStorage();\\n        uint16 selectorCount = uint16(ds.selectors.length);                \\n        enforceHasContractCode(_facetAddress, \\\"LibDiamondCut: Add facet has no code\\\");\\n        for (uint256 selectorIndex; selectorIndex < _functionSelectors.length; selectorIndex++) {\\n            bytes4 selector = _functionSelectors[selectorIndex];\\n            address oldFacetAddress = ds.facetAddressAndSelectorPosition[selector].facetAddress;\\n            if(oldFacetAddress != address(0)) {\\n                revert CannotAddFunctionToDiamondThatAlreadyExists(selector);\\n            }            \\n            ds.facetAddressAndSelectorPosition[selector] = FacetAddressAndSelectorPosition(_facetAddress, selectorCount);\\n            ds.selectors.push(selector);\\n            selectorCount++;\\n        }\\n    }\\n\\n    function replaceFunctions(address _facetAddress, bytes4[] memory _functionSelectors) internal {        \\n        DiamondStorage storage ds = diamondStorage();\\n        if(_facetAddress == address(0)) {\\n            revert CannotReplaceFunctionsFromFacetWithZeroAddress(_functionSelectors);\\n        }\\n        enforceHasContractCode(_facetAddress, \\\"LibDiamondCut: Replace facet has no code\\\");\\n        for (uint256 selectorIndex; selectorIndex < _functionSelectors.length; selectorIndex++) {\\n            bytes4 selector = _functionSelectors[selectorIndex];\\n            address oldFacetAddress = ds.facetAddressAndSelectorPosition[selector].facetAddress;\\n            // can't replace immutable functions -- functions defined directly in the diamond in this case\\n            if(oldFacetAddress == address(this)) {\\n                revert CannotReplaceImmutableFunction(selector);\\n            }\\n            if(oldFacetAddress == _facetAddress) {\\n                revert CannotReplaceFunctionWithTheSameFunctionFromTheSameFacet(selector);\\n            }\\n            if(oldFacetAddress == address(0)) {\\n                revert CannotReplaceFunctionThatDoesNotExists(selector);\\n            }\\n            // replace old facet address\\n            ds.facetAddressAndSelectorPosition[selector].facetAddress = _facetAddress;\\n        }\\n    }\\n\\n    function removeFunctions(address _facetAddress, bytes4[] memory _functionSelectors) internal {        \\n        DiamondStorage storage ds = diamondStorage();\\n        uint256 selectorCount = ds.selectors.length;\\n        if(_facetAddress != address(0)) {\\n            revert RemoveFacetAddressMustBeZeroAddress(_facetAddress);\\n        }        \\n        for (uint256 selectorIndex; selectorIndex < _functionSelectors.length; selectorIndex++) {\\n            bytes4 selector = _functionSelectors[selectorIndex];\\n            FacetAddressAndSelectorPosition memory oldFacetAddressAndSelectorPosition = ds.facetAddressAndSelectorPosition[selector];\\n            if(oldFacetAddressAndSelectorPosition.facetAddress == address(0)) {\\n                revert CannotRemoveFunctionThatDoesNotExist(selector);\\n            }\\n            \\n            \\n            // can't remove immutable functions -- functions defined directly in the diamond\\n            if(oldFacetAddressAndSelectorPosition.facetAddress == address(this)) {\\n                revert CannotRemoveImmutableFunction(selector);\\n            }\\n            // replace selector with last selector\\n            selectorCount--;\\n            if (oldFacetAddressAndSelectorPosition.selectorPosition != selectorCount) {\\n                bytes4 lastSelector = ds.selectors[selectorCount];\\n                ds.selectors[oldFacetAddressAndSelectorPosition.selectorPosition] = lastSelector;\\n                ds.facetAddressAndSelectorPosition[lastSelector].selectorPosition = oldFacetAddressAndSelectorPosition.selectorPosition;\\n            }\\n            // delete last selector\\n            ds.selectors.pop();\\n            delete ds.facetAddressAndSelectorPosition[selector];\\n        }\\n    }\\n\\n    function initializeDiamondCut(address _init, bytes memory _calldata) internal {\\n        if (_init == address(0)) {\\n            return;\\n        }\\n        enforceHasContractCode(_init, \\\"LibDiamondCut: _init address has no code\\\");        \\n        (bool success, bytes memory error) = _init.delegatecall(_calldata);\\n        if (!success) {\\n            if (error.length > 0) {\\n                // bubble up error\\n                /// @solidity memory-safe-assembly\\n                assembly {\\n                    let returndata_size := mload(error)\\n                    revert(add(32, error), returndata_size)\\n                }\\n            } else {\\n                revert InitializationFunctionReverted(_init, _calldata);\\n            }\\n        }        \\n    }\\n\\n    function enforceHasContractCode(address _contract, string memory _errorMessage) internal view {\\n        uint256 contractSize;\\n        assembly {\\n            contractSize := extcodesize(_contract)\\n        }\\n        if(contractSize == 0) {\\n            revert NoBytecodeAtAddress(_contract, _errorMessage);\\n        }        \\n    }\\n}\\n\"},\"hardhat/console.sol\":{\"content\":\"// SPDX-License-Identifier: MIT\\npragma solidity >= 0.4.22 <0.9.0;\\n\\nlibrary console {\\n\\taddress constant CONSOLE_ADDRESS = address(0x000000000000000000636F6e736F6c652e6c6f67);\\n\\n\\tfunction _sendLogPayload(bytes memory payload) private view {\\n\\t\\tuint256 payloadLength = payload.length;\\n\\t\\taddress consoleAddress = CONSOLE_ADDRESS;\\n\\t\\tassembly {\\n\\t\\t\\tlet payloadStart := add(payload, 32)\\n\\t\\t\\tlet r := staticcall(gas(), consoleAddress, payloadStart, payloadLength, 0, 0)\\n\\t\\t}\\n\\t}\\n\\n\\tfunction log() internal view {\\n\\t\\t_sendLogPayload(abi.encodeWithSignature(\\\"log()\\\"));\\n\\t}\\n\\n\\tfunction logInt(int256 p0) internal view {\\n\\t\\t_sendLogPayload(abi.encodeWithSignature(\\\"log(int256)\\\", p0));\\n\\t}\\n\\n\\tfunction logUint(uint256 p0) internal view {\\n\\t\\t_sendLogPayload(abi.encodeWithSignature(\\\"log(uint256)\\\", p0));\\n\\t}\\n\\n\\tfunction logString(string memory p0) internal view {\\n\\t\\t_sendLogPayload(abi.encodeWithSignature(\\\"log(string)\\\", p0));\\n\\t}\\n\\n\\tfunction logBool(bool p0) internal view {\\n\\t\\t_sendLogPayload(abi.encodeWithSignature(\\\"log(bool)\\\", p0));\\n\\t}\\n\\n\\tfunction logAddress(address p0) internal view {\\n\\t\\t_sendLogPayload(abi.encodeWithSignature(\\\"log(address)\\\", p0));\\n\\t}\\n\\n\\tfunction logBytes(bytes memory p0) internal view {\\n\\t\\t_sendLogPayload(abi.encodeWithSignature(\\\"log(bytes)\\\", p0));\\n\\t}\\n\\n\\tfunction logBytes1(bytes1 p0) internal view {\\n\\t\\t_sendLogPayload(abi.encodeWithSignature(\\\"log(bytes1)\\\", p0));\\n\\t}\\n\\n\\tfunction logBytes2(bytes2 p0) internal view {\\n\\t\\t_sendLogPayload(abi.encodeWithSignature(\\\"log(bytes2)\\\", p0));\\n\\t}\\n\\n\\tfunction logBytes3(bytes3 p0) internal view {\\n\\t\\t_sendLogPayload(abi.encodeWithSignature(\\\"log(bytes3)\\\", p0));\\n\\t}\\n\\n\\tfunction logBytes4(bytes4 p0) internal view {\\n\\t\\t_sendLogPayload(abi.encodeWithSignature(\\\"log(bytes4)\\\", p0));\\n\\t}\\n\\n\\tfunction logBytes5(bytes5 p0) internal view {\\n\\t\\t_sendLogPayload(abi.encodeWithSignature(\\\"log(bytes5)\\\", p0));\\n\\t}\\n\\n\\tfunction logBytes6(bytes6 p0) internal view {\\n\\t\\t_sendLogPayload(abi.encodeWithSignature(\\\"log(bytes6)\\\", p0));\\n\\t}\\n\\n\\tfunction logBytes7(bytes7 p0) internal view {\\n\\t\\t_sendLogPayload(abi.encodeWithSignature(\\\"log(bytes7)\\\", p0));\\n\\t}\\n\\n\\tfunction logBytes8(bytes8 p0) internal view {\\n\\t\\t_sendLogPayload(abi.encodeWithSignature(\\\"log(bytes8)\\\", p0));\\n\\t}\\n\\n\\tfunction logBytes9(bytes9 p0) internal view {\\n\\t\\t_sendLogPayload(abi.encodeWithSignature(\\\"log(bytes9)\\\", p0));\\n\\t}\\n\\n\\tfunction logBytes10(bytes10 p0) internal view {\\n\\t\\t_sendLogPayload(abi.encodeWithSignature(\\\"log(bytes10)\\\", p0));\\n\\t}\\n\\n\\tfunction logBytes11(bytes11 p0) internal view {\\n\\t\\t_sendLogPayload(abi.encodeWithSignature(\\\"log(bytes11)\\\", p0));\\n\\t}\\n\\n\\tfunction logBytes12(bytes12 p0) internal view {\\n\\t\\t_sendLogPayload(abi.encodeWithSignature(\\\"log(bytes12)\\\", p0));\\n\\t}\\n\\n\\tfunction logBytes13(bytes13 p0) internal view {\\n\\t\\t_sendLogPayload(abi.encodeWithSignature(\\\"log(bytes13)\\\", p0));\\n\\t}\\n\\n\\tfunction logBytes14(bytes14 p0) internal view {\\n\\t\\t_sendLogPayload(abi.encodeWithSignature(\\\"log(bytes14)\\\", p0));\\n\\t}\\n\\n\\tfunction logBytes15(bytes15 p0) internal view {\\n\\t\\t_sendLogPayload(abi.encodeWithSignature(\\\"log(bytes15)\\\", p0));\\n\\t}\\n\\n\\tfunction logBytes16(bytes16 p0) internal view {\\n\\t\\t_sendLogPayload(abi.encodeWithSignature(\\\"log(bytes16)\\\", p0));\\n\\t}\\n\\n\\tfunction logBytes17(bytes17 p0) internal view {\\n\\t\\t_sendLogPayload(abi.encodeWithSignature(\\\"log(bytes17)\\\", p0));\\n\\t}\\n\\n\\tfunction logBytes18(bytes18 p0) internal view {\\n\\t\\t_sendLogPayload(abi.encodeWithSignature(\\\"log(bytes18)\\\", p0));\\n\\t}\\n\\n\\tfunction logBytes19(bytes19 p0) internal view {\\n\\t\\t_sendLogPayload(abi.encodeWithSignature(\\\"log(bytes19)\\\", p0));\\n\\t}\\n\\n\\tfunction logBytes20(bytes20 p0) internal view {\\n\\t\\t_sendLogPayload(abi.encodeWithSignature(\\\"log(bytes20)\\\", p0));\\n\\t}\\n\\n\\tfunction logBytes21(bytes21 p0) internal view {\\n\\t\\t_sendLogPayload(abi.encodeWithSignature(\\\"log(bytes21)\\\", p0));\\n\\t}\\n\\n\\tfunction logBytes22(bytes22 p0) internal view {\\n\\t\\t_sendLogPayload(abi.encodeWithSignature(\\\"log(bytes22)\\\", p0));\\n\\t}\\n\\n\\tfunction logBytes23(bytes23 p0) internal view {\\n\\t\\t_sendLogPayload(abi.encodeWithSignature(\\\"log(bytes23)\\\", p0));\\n\\t}\\n\\n\\tfunction logBytes24(bytes24 p0) internal view {\\n\\t\\t_sendLogPayload(abi.encodeWithSignature(\\\"log(bytes24)\\\", p0));\\n\\t}\\n\\n\\tfunction logBytes25(bytes25 p0) internal view {\\n\\t\\t_sendLogPayload(abi.encodeWithSignature(\\\"log(bytes25)\\\", p0));\\n\\t}\\n\\n\\tfunction logBytes26(bytes26 p0) internal view {\\n\\t\\t_sendLogPayload(abi.encodeWithSignature(\\\"log(bytes26)\\\", p0));\\n\\t}\\n\\n\\tfunction logBytes27(bytes27 p0) internal view {\\n\\t\\t_sendLogPayload(abi.encodeWithSignature(\\\"log(bytes27)\\\", p0));\\n\\t}\\n\\n\\tfunction logBytes28(bytes28 p0) internal view {\\n\\t\\t_sendLogPayload(abi.encodeWithSignature(\\\"log(bytes28)\\\", p0));\\n\\t}\\n\\n\\tfunction logBytes29(bytes29 p0) internal view {\\n\\t\\t_sendLogPayload(abi.encodeWithSignature(\\\"log(bytes29)\\\", p0));\\n\\t}\\n\\n\\tfunction logBytes30(bytes30 p0) internal view {\\n\\t\\t_sendLogPayload(abi.encodeWithSignature(\\\"log(bytes30)\\\", p0));\\n\\t}\\n\\n\\tfunction logBytes31(bytes31 p0) internal view {\\n\\t\\t_sendLogPayload(abi.encodeWithSignature(\\\"log(bytes31)\\\", p0));\\n\\t}\\n\\n\\tfunction logBytes32(bytes32 p0) internal view {\\n\\t\\t_sendLogPayload(abi.encodeWithSignature(\\\"log(bytes32)\\\", p0));\\n\\t}\\n\\n\\tfunction log(uint256 p0) internal view {\\n\\t\\t_sendLogPayload(abi.encodeWithSignature(\\\"log(uint256)\\\", p0));\\n\\t}\\n\\n\\tfunction log(string memory p0) internal view {\\n\\t\\t_sendLogPayload(abi.encodeWithSignature(\\\"log(string)\\\", p0));\\n\\t}\\n\\n\\tfunction log(bool p0) internal view {\\n\\t\\t_sendLogPayload(abi.encodeWithSignature(\\\"log(bool)\\\", p0));\\n\\t}\\n\\n\\tfunction log(address p0) internal view {\\n\\t\\t_sendLogPayload(abi.encodeWithSignature(\\\"log(address)\\\", p0));\\n\\t}\\n\\n\\tfunction log(uint256 p0, uint256 p1) internal view {\\n\\t\\t_sendLogPayload(abi.encodeWithSignature(\\\"log(uint256,uint256)\\\", p0, p1));\\n\\t}\\n\\n\\tfunction log(uint256 p0, string memory p1) internal view {\\n\\t\\t_sendLogPayload(abi.encodeWithSignature(\\\"log(uint256,string)\\\", p0, p1));\\n\\t}\\n\\n\\tfunction log(uint256 p0, bool p1) internal view {\\n\\t\\t_sendLogPayload(abi.encodeWithSignature(\\\"log(uint256,bool)\\\", p0, p1));\\n\\t}\\n\\n\\tfunction log(uint256 p0, address p1) internal view {\\n\\t\\t_sendLogPayload(abi.encodeWithSignature(\\\"log(uint256,address)\\\", p0, p1));\\n\\t}\\n\\n\\tfunction log(string memory p0, uint256 p1) internal view {\\n\\t\\t_sendLogPayload(abi.encodeWithSignature(\\\"log(string,uint256)\\\", p0, p1));\\n\\t}\\n\\n\\tfunction log(string memory p0, string memory p1) internal view {\\n\\t\\t_sendLogPayload(abi.encodeWithSignature(\\\"log(string,string)\\\", p0, p1));\\n\\t}\\n\\n\\tfunction log(string memory p0, bool p1) internal view {\\n\\t\\t_sendLogPayload(abi.encodeWithSignature(\\\"log(string,bool)\\\", p0, p1));\\n\\t}\\n\\n\\tfunction log(string memory p0, address p1) internal view {\\n\\t\\t_sendLogPayload(abi.encodeWithSignature(\\\"log(string,address)\\\", p0, p1));\\n\\t}\\n\\n\\tfunction log(bool p0, uint256 p1) internal view {\\n\\t\\t_sendLogPayload(abi.encodeWithSignature(\\\"log(bool,uint256)\\\", p0, p1));\\n\\t}\\n\\n\\tfunction log(bool p0, string memory p1) internal view {\\n\\t\\t_sendLogPayload(abi.encodeWithSignature(\\\"log(bool,string)\\\", p0, p1));\\n\\t}\\n\\n\\tfunction log(bool p0, bool p1) internal view {\\n\\t\\t_sendLogPayload(abi.encodeWithSignature(\\\"log(bool,bool)\\\", p0, p1));\\n\\t}\\n\\n\\tfunction log(bool p0, address p1) internal view {\\n\\t\\t_sendLogPayload(abi.encodeWithSignature(\\\"log(bool,address)\\\", p0, p1));\\n\\t}\\n\\n\\tfunction log(address p0, uint256 p1) internal view {\\n\\t\\t_sendLogPayload(abi.encodeWithSignature(\\\"log(address,uint256)\\\", p0, p1));\\n\\t}\\n\\n\\tfunction log(address p0, string memory p1) internal view {\\n\\t\\t_sendLogPayload(abi.encodeWithSignature(\\\"log(address,string)\\\", p0, p1));\\n\\t}\\n\\n\\tfunction log(address p0, bool p1) internal view {\\n\\t\\t_sendLogPayload(abi.encodeWithSignature(\\\"log(address,bool)\\\", p0, p1));\\n\\t}\\n\\n\\tfunction log(address p0, address p1) internal view {\\n\\t\\t_sendLogPayload(abi.encodeWithSignature(\\\"log(address,address)\\\", p0, p1));\\n\\t}\\n\\n\\tfunction log(uint256 p0, uint256 p1, uint256 p2) internal view {\\n\\t\\t_sendLogPayload(abi.encodeWithSignature(\\\"log(uint256,uint256,uint256)\\\", p0, p1, p2));\\n\\t}\\n\\n\\tfunction log(uint256 p0, uint256 p1, string memory p2) internal view {\\n\\t\\t_sendLogPayload(abi.encodeWithSignature(\\\"log(uint256,uint256,string)\\\", p0, p1, p2));\\n\\t}\\n\\n\\tfunction log(uint256 p0, uint256 p1, bool p2) internal view {\\n\\t\\t_sendLogPayload(abi.encodeWithSignature(\\\"log(uint256,uint256,bool)\\\", p0, p1, p2));\\n\\t}\\n\\n\\tfunction log(uint256 p0, uint256 p1, address p2) internal view {\\n\\t\\t_sendLogPayload(abi.encodeWithSignature(\\\"log(uint256,uint256,address)\\\", p0, p1, p2));\\n\\t}\\n\\n\\tfunction log(uint256 p0, string memory p1, uint256 p2) internal view {\\n\\t\\t_sendLogPayload(abi.encodeWithSignature(\\\"log(uint256,string,uint256)\\\", p0, p1, p2));\\n\\t}\\n\\n\\tfunction log(uint256 p0, string memory p1, string memory p2) internal view {\\n\\t\\t_sendLogPayload(abi.encodeWithSignature(\\\"log(uint256,string,string)\\\", p0, p1, p2));\\n\\t}\\n\\n\\tfunction log(uint256 p0, string memory p1, bool p2) internal view {\\n\\t\\t_sendLogPayload(abi.encodeWithSignature(\\\"log(uint256,string,bool)\\\", p0, p1, p2));\\n\\t}\\n\\n\\tfunction log(uint256 p0, string memory p1, address p2) internal view {\\n\\t\\t_sendLogPayload(abi.encodeWithSignature(\\\"log(uint256,string,address)\\\", p0, p1, p2));\\n\\t}\\n\\n\\tfunction log(uint256 p0, bool p1, uint256 p2) internal view {\\n\\t\\t_sendLogPayload(abi.encodeWithSignature(\\\"log(uint256,bool,uint256)\\\", p0, p1, p2));\\n\\t}\\n\\n\\tfunction log(uint256 p0, bool p1, string memory p2) internal view {\\n\\t\\t_sendLogPayload(abi.encodeWithSignature(\\\"log(uint256,bool,string)\\\", p0, p1, p2));\\n\\t}\\n\\n\\tfunction log(uint256 p0, bool p1, bool p2) internal view {\\n\\t\\t_sendLogPayload(abi.encodeWithSignature(\\\"log(uint256,bool,bool)\\\", p0, p1, p2));\\n\\t}\\n\\n\\tfunction log(uint256 p0, bool p1, address p2) internal view {\\n\\t\\t_sendLogPayload(abi.encodeWithSignature(\\\"log(uint256,bool,address)\\\", p0, p1, p2));\\n\\t}\\n\\n\\tfunction log(uint256 p0, address p1, uint256 p2) internal view {\\n\\t\\t_sendLogPayload(abi.encodeWithSignature(\\\"log(uint256,address,uint256)\\\", p0, p1, p2));\\n\\t}\\n\\n\\tfunction log(uint256 p0, address p1, string memory p2) internal view {\\n\\t\\t_sendLogPayload(abi.encodeWithSignature(\\\"log(uint256,address,string)\\\", p0, p1, p2));\\n\\t}\\n\\n\\tfunction log(uint256 p0, address p1, bool p2) internal view {\\n\\t\\t_sendLogPayload(abi.encodeWithSignature(\\\"log(uint256,address,bool)\\\", p0, p1, p2));\\n\\t}\\n\\n\\tfunction log(uint256 p0, address p1, address p2) internal view {\\n\\t\\t_sendLogPayload(abi.encodeWithSignature(\\\"log(uint256,address,address)\\\", p0, p1, p2));\\n\\t}\\n\\n\\tfunction log(string memory p0, uint256 p1, uint256 p2) internal view {\\n\\t\\t_sendLogPayload(abi.encodeWithSignature(\\\"log(string,uint256,uint256)\\\", p0, p1, p2));\\n\\t}\\n\\n\\tfunction log(string memory p0, uint256 p1, string memory p2) internal view {\\n\\t\\t_sendLogPayload(abi.encodeWithSignature(\\\"log(string,uint256,string)\\\", p0, p1, p2));\\n\\t}\\n\\n\\tfunction log(string memory p0, uint256 p1, bool p2) internal view {\\n\\t\\t_sendLogPayload(abi.encodeWithSignature(\\\"log(string,uint256,bool)\\\", p0, p1, p2));\\n\\t}\\n\\n\\tfunction log(string memory p0, uint256 p1, address p2) internal view {\\n\\t\\t_sendLogPayload(abi.encodeWithSignature(\\\"log(string,uint256,address)\\\", p0, p1, p2));\\n\\t}\\n\\n\\tfunction log(string memory p0, string memory p1, uint256 p2) internal view {\\n\\t\\t_sendLogPayload(abi.encodeWithSignature(\\\"log(string,string,uint256)\\\", p0, p1, p2));\\n\\t}\\n\\n\\tfunction log(string memory p0, string memory p1, string memory p2) internal view {\\n\\t\\t_sendLogPayload(abi.encodeWithSignature(\\\"log(string,string,string)\\\", p0, p1, p2));\\n\\t}\\n\\n\\tfunction log(string memory p0, string memory p1, bool p2) internal view {\\n\\t\\t_sendLogPayload(abi.encodeWithSignature(\\\"log(string,string,bool)\\\", p0, p1, p2));\\n\\t}\\n\\n\\tfunction log(string memory p0, string memory p1, address p2) internal view {\\n\\t\\t_sendLogPayload(abi.encodeWithSignature(\\\"log(string,string,address)\\\", p0, p1, p2));\\n\\t}\\n\\n\\tfunction log(string memory p0, bool p1, uint256 p2) internal view {\\n\\t\\t_sendLogPayload(abi.encodeWithSignature(\\\"log(string,bool,uint256)\\\", p0, p1, p2));\\n\\t}\\n\\n\\tfunction log(string memory p0, bool p1, string memory p2) internal view {\\n\\t\\t_sendLogPayload(abi.encodeWithSignature(\\\"log(string,bool,string)\\\", p0, p1, p2));\\n\\t}\\n\\n\\tfunction log(string memory p0, bool p1, bool p2) internal view {\\n\\t\\t_sendLogPayload(abi.encodeWithSignature(\\\"log(string,bool,bool)\\\", p0, p1, p2));\\n\\t}\\n\\n\\tfunction log(string memory p0, bool p1, address p2) internal view {\\n\\t\\t_sendLogPayload(abi.encodeWithSignature(\\\"log(string,bool,address)\\\", p0, p1, p2));\\n\\t}\\n\\n\\tfunction log(string memory p0, address p1, uint256 p2) internal view {\\n\\t\\t_sendLogPayload(abi.encodeWithSignature(\\\"log(string,address,uint256)\\\", p0, p1, p2));\\n\\t}\\n\\n\\tfunction log(string memory p0, address p1, string memory p2) internal view {\\n\\t\\t_sendLogPayload(abi.encodeWithSignature(\\\"log(string,address,string)\\\", p0, p1, p2));\\n\\t}\\n\\n\\tfunction log(string memory p0, address p1, bool p2) internal view {\\n\\t\\t_sendLogPayload(abi.encodeWithSignature(\\\"log(string,address,bool)\\\", p0, p1, p2));\\n\\t}\\n\\n\\tfunction log(string memory p0, address p1, address p2) internal view {\\n\\t\\t_sendLogPayload(abi.encodeWithSignature(\\\"log(string,address,address)\\\", p0, p1, p2));\\n\\t}\\n\\n\\tfunction log(bool p0, uint256 p1, uint256 p2) internal view {\\n\\t\\t_sendLogPayload(abi.encodeWithSignature(\\\"log(bool,uint256,uint256)\\\", p0, p1, p2));\\n\\t}\\n\\n\\tfunction log(bool p0, uint256 p1, string memory p2) internal view {\\n\\t\\t_sendLogPayload(abi.encodeWithSignature(\\\"log(bool,uint256,string)\\\", p0, p1, p2));\\n\\t}\\n\\n\\tfunction log(bool p0, uint256 p1, bool p2) internal view {\\n\\t\\t_sendLogPayload(abi.encodeWithSignature(\\\"log(bool,uint256,bool)\\\", p0, p1, p2));\\n\\t}\\n\\n\\tfunction log(bool p0, uint256 p1, address p2) internal view {\\n\\t\\t_sendLogPayload(abi.encodeWithSignature(\\\"log(bool,uint256,address)\\\", p0, p1, p2));\\n\\t}\\n\\n\\tfunction log(bool p0, string memory p1, uint256 p2) internal view {\\n\\t\\t_sendLogPayload(abi.encodeWithSignature(\\\"log(bool,string,uint256)\\\", p0, p1, p2));\\n\\t}\\n\\n\\tfunction log(bool p0, string memory p1, string memory p2) internal view {\\n\\t\\t_sendLogPayload(abi.encodeWithSignature(\\\"log(bool,string,string)\\\", p0, p1, p2));\\n\\t}\\n\\n\\tfunction log(bool p0, string memory p1, bool p2) internal view {\\n\\t\\t_sendLogPayload(abi.encodeWithSignature(\\\"log(bool,string,bool)\\\", p0, p1, p2));\\n\\t}\\n\\n\\tfunction log(bool p0, string memory p1, address p2) internal view {\\n\\t\\t_sendLogPayload(abi.encodeWithSignature(\\\"log(bool,string,address)\\\", p0, p1, p2));\\n\\t}\\n\\n\\tfunction log(bool p0, bool p1, uint256 p2) internal view {\\n\\t\\t_sendLogPayload(abi.encodeWithSignature(\\\"log(bool,bool,uint256)\\\", p0, p1, p2));\\n\\t}\\n\\n\\tfunction log(bool p0, bool p1, string memory p2) internal view {\\n\\t\\t_sendLogPayload(abi.encodeWithSignature(\\\"log(bool,bool,string)\\\", p0, p1, p2));\\n\\t}\\n\\n\\tfunction log(bool p0, bool p1, bool p2) internal view {\\n\\t\\t_sendLogPayload(abi.encodeWithSignature(\\\"log(bool,bool,bool)\\\", p0, p1, p2));\\n\\t}\\n\\n\\tfunction log(bool p0, bool p1, address p2) internal view {\\n\\t\\t_sendLogPayload(abi.encodeWithSignature(\\\"log(bool,bool,address)\\\", p0, p1, p2));\\n\\t}\\n\\n\\tfunction log(bool p0, address p1, uint256 p2) internal view {\\n\\t\\t_sendLogPayload(abi.encodeWithSignature(\\\"log(bool,address,uint256)\\\", p0, p1, p2));\\n\\t}\\n\\n\\tfunction log(bool p0, address p1, string memory p2) internal view {\\n\\t\\t_sendLogPayload(abi.encodeWithSignature(\\\"log(bool,address,string)\\\", p0, p1, p2));\\n\\t}\\n\\n\\tfunction log(bool p0, address p1, bool p2) internal view {\\n\\t\\t_sendLogPayload(abi.encodeWithSignature(\\\"log(bool,address,bool)\\\", p0, p1, p2));\\n\\t}\\n\\n\\tfunction log(bool p0, address p1, address p2) internal view {\\n\\t\\t_sendLogPayload(abi.encodeWithSignature(\\\"log(bool,address,address)\\\", p0, p1, p2));\\n\\t}\\n\\n\\tfunction log(address p0, uint256 p1, uint256 p2) internal view {\\n\\t\\t_sendLogPayload(abi.encodeWithSignature(\\\"log(address,uint256,uint256)\\\", p0, p1, p2));\\n\\t}\\n\\n\\tfunction log(address p0, uint256 p1, string memory p2) internal view {\\n\\t\\t_sendLogPayload(abi.encodeWithSignature(\\\"log(address,uint256,string)\\\", p0, p1, p2));\\n\\t}\\n\\n\\tfunction log(address p0, uint256 p1, bool p2) internal view {\\n\\t\\t_sendLogPayload(abi.encodeWithSignature(\\\"log(address,uint256,bool)\\\", p0, p1, p2));\\n\\t}\\n\\n\\tfunction log(address p0, uint256 p1, address p2) internal view {\\n\\t\\t_sendLogPayload(abi.encodeWithSignature(\\\"log(address,uint256,address)\\\", p0, p1, p2));\\n\\t}\\n\\n\\tfunction log(address p0, string memory p1, uint256 p2) internal view {\\n\\t\\t_sendLogPayload(abi.encodeWithSignature(\\\"log(address,string,uint256)\\\", p0, p1, p2));\\n\\t}\\n\\n\\tfunction log(address p0, string memory p1, string memory p2) internal view {\\n\\t\\t_sendLogPayload(abi.encodeWithSignature(\\\"log(address,string,string)\\\", p0, p1, p2));\\n\\t}\\n\\n\\tfunction log(address p0, string memory p1, bool p2) internal view {\\n\\t\\t_sendLogPayload(abi.encodeWithSignature(\\\"log(address,string,bool)\\\", p0, p1, p2));\\n\\t}\\n\\n\\tfunction log(address p0, string memory p1, address p2) internal view {\\n\\t\\t_sendLogPayload(abi.encodeWithSignature(\\\"log(address,string,address)\\\", p0, p1, p2));\\n\\t}\\n\\n\\tfunction log(address p0, bool p1, uint256 p2) internal view {\\n\\t\\t_sendLogPayload(abi.encodeWithSignature(\\\"log(address,bool,uint256)\\\", p0, p1, p2));\\n\\t}\\n\\n\\tfunction log(address p0, bool p1, string memory p2) internal view {\\n\\t\\t_sendLogPayload(abi.encodeWithSignature(\\\"log(address,bool,string)\\\", p0, p1, p2));\\n\\t}\\n\\n\\tfunction log(address p0, bool p1, bool p2) internal view {\\n\\t\\t_sendLogPayload(abi.encodeWithSignature(\\\"log(address,bool,bool)\\\", p0, p1, p2));\\n\\t}\\n\\n\\tfunction log(address p0, bool p1, address p2) internal view {\\n\\t\\t_sendLogPayload(abi.encodeWithSignature(\\\"log(address,bool,address)\\\", p0, p1, p2));\\n\\t}\\n\\n\\tfunction log(address p0, address p1, uint256 p2) internal view {\\n\\t\\t_sendLogPayload(abi.encodeWithSignature(\\\"log(address,address,uint256)\\\", p0, p1, p2));\\n\\t}\\n\\n\\tfunction log(address p0, address p1, string memory p2) internal view {\\n\\t\\t_sendLogPayload(abi.encodeWithSignature(\\\"log(address,address,string)\\\", p0, p1, p2));\\n\\t}\\n\\n\\tfunction log(address p0, address p1, bool p2) internal view {\\n\\t\\t_sendLogPayload(abi.encodeWithSignature(\\\"log(address,address,bool)\\\", p0, p1, p2));\\n\\t}\\n\\n\\tfunction log(address p0, address p1, address p2) internal view {\\n\\t\\t_sendLogPayload(abi.encodeWithSignature(\\\"log(address,address,address)\\\", p0, p1, p2));\\n\\t}\\n\\n\\tfunction log(uint256 p0, uint256 p1, uint256 p2, uint256 p3) internal view {\\n\\t\\t_sendLogPayload(abi.encodeWithSignature(\\\"log(uint256,uint256,uint256,uint256)\\\", p0, p1, p2, p3));\\n\\t}\\n\\n\\tfunction log(uint256 p0, uint256 p1, uint256 p2, string memory p3) internal view {\\n\\t\\t_sendLogPayload(abi.encodeWithSignature(\\\"log(uint256,uint256,uint256,string)\\\", p0, p1, p2, p3));\\n\\t}\\n\\n\\tfunction log(uint256 p0, uint256 p1, uint256 p2, bool p3) internal view {\\n\\t\\t_sendLogPayload(abi.encodeWithSignature(\\\"log(uint256,uint256,uint256,bool)\\\", p0, p1, p2, p3));\\n\\t}\\n\\n\\tfunction log(uint256 p0, uint256 p1, uint256 p2, address p3) internal view {\\n\\t\\t_sendLogPayload(abi.encodeWithSignature(\\\"log(uint256,uint256,uint256,address)\\\", p0, p1, p2, p3));\\n\\t}\\n\\n\\tfunction log(uint256 p0, uint256 p1, string memory p2, uint256 p3) internal view {\\n\\t\\t_sendLogPayload(abi.encodeWithSignature(\\\"log(uint256,uint256,string,uint256)\\\", p0, p1, p2, p3));\\n\\t}\\n\\n\\tfunction log(uint256 p0, uint256 p1, string memory p2, string memory p3) internal view {\\n\\t\\t_sendLogPayload(abi.encodeWithSignature(\\\"log(uint256,uint256,string,string)\\\", p0, p1, p2, p3));\\n\\t}\\n\\n\\tfunction log(uint256 p0, uint256 p1, string memory p2, bool p3) internal view {\\n\\t\\t_sendLogPayload(abi.encodeWithSignature(\\\"log(uint256,uint256,string,bool)\\\", p0, p1, p2, p3));\\n\\t}\\n\\n\\tfunction log(uint256 p0, uint256 p1, string memory p2, address p3) internal view {\\n\\t\\t_sendLogPayload(abi.encodeWithSignature(\\\"log(uint256,uint256,string,address)\\\", p0, p1, p2, p3));\\n\\t}\\n\\n\\tfunction log(uint256 p0, uint256 p1, bool p2, uint256 p3) internal view {\\n\\t\\t_sendLogPayload(abi.encodeWithSignature(\\\"log(uint256,uint256,bool,uint256)\\\", p0, p1, p2, p3));\\n\\t}\\n\\n\\tfunction log(uint256 p0, uint256 p1, bool p2, string memory p3) internal view {\\n\\t\\t_sendLogPayload(abi.encodeWithSignature(\\\"log(uint256,uint256,bool,string)\\\", p0, p1, p2, p3));\\n\\t}\\n\\n\\tfunction log(uint256 p0, uint256 p1, bool p2, bool p3) internal view {\\n\\t\\t_sendLogPayload(abi.encodeWithSignature(\\\"log(uint256,uint256,bool,bool)\\\", p0, p1, p2, p3));\\n\\t}\\n\\n\\tfunction log(uint256 p0, uint256 p1, bool p2, address p3) internal view {\\n\\t\\t_sendLogPayload(abi.encodeWithSignature(\\\"log(uint256,uint256,bool,address)\\\", p0, p1, p2, p3));\\n\\t}\\n\\n\\tfunction log(uint256 p0, uint256 p1, address p2, uint256 p3) internal view {\\n\\t\\t_sendLogPayload(abi.encodeWithSignature(\\\"log(uint256,uint256,address,uint256)\\\", p0, p1, p2, p3));\\n\\t}\\n\\n\\tfunction log(uint256 p0, uint256 p1, address p2, string memory p3) internal view {\\n\\t\\t_sendLogPayload(abi.encodeWithSignature(\\\"log(uint256,uint256,address,string)\\\", p0, p1, p2, p3));\\n\\t}\\n\\n\\tfunction log(uint256 p0, uint256 p1, address p2, bool p3) internal view {\\n\\t\\t_sendLogPayload(abi.encodeWithSignature(\\\"log(uint256,uint256,address,bool)\\\", p0, p1, p2, p3));\\n\\t}\\n\\n\\tfunction log(uint256 p0, uint256 p1, address p2, address p3) internal view {\\n\\t\\t_sendLogPayload(abi.encodeWithSignature(\\\"log(uint256,uint256,address,address)\\\", p0, p1, p2, p3));\\n\\t}\\n\\n\\tfunction log(uint256 p0, string memory p1, uint256 p2, uint256 p3) internal view {\\n\\t\\t_sendLogPayload(abi.encodeWithSignature(\\\"log(uint256,string,uint256,uint256)\\\", p0, p1, p2, p3));\\n\\t}\\n\\n\\tfunction log(uint256 p0, string memory p1, uint256 p2, string memory p3) internal view {\\n\\t\\t_sendLogPayload(abi.encodeWithSignature(\\\"log(uint256,string,uint256,string)\\\", p0, p1, p2, p3));\\n\\t}\\n\\n\\tfunction log(uint256 p0, string memory p1, uint256 p2, bool p3) internal view {\\n\\t\\t_sendLogPayload(abi.encodeWithSignature(\\\"log(uint256,string,uint256,bool)\\\", p0, p1, p2, p3));\\n\\t}\\n\\n\\tfunction log(uint256 p0, string memory p1, uint256 p2, address p3) internal view {\\n\\t\\t_sendLogPayload(abi.encodeWithSignature(\\\"log(uint256,string,uint256,address)\\\", p0, p1, p2, p3));\\n\\t}\\n\\n\\tfunction log(uint256 p0, string memory p1, string memory p2, uint256 p3) internal view {\\n\\t\\t_sendLogPayload(abi.encodeWithSignature(\\\"log(uint256,string,string,uint256)\\\", p0, p1, p2, p3));\\n\\t}\\n\\n\\tfunction log(uint256 p0, string memory p1, string memory p2, string memory p3) internal view {\\n\\t\\t_sendLogPayload(abi.encodeWithSignature(\\\"log(uint256,string,string,string)\\\", p0, p1, p2, p3));\\n\\t}\\n\\n\\tfunction log(uint256 p0, string memory p1, string memory p2, bool p3) internal view {\\n\\t\\t_sendLogPayload(abi.encodeWithSignature(\\\"log(uint256,string,string,bool)\\\", p0, p1, p2, p3));\\n\\t}\\n\\n\\tfunction log(uint256 p0, string memory p1, string memory p2, address p3) internal view {\\n\\t\\t_sendLogPayload(abi.encodeWithSignature(\\\"log(uint256,string,string,address)\\\", p0, p1, p2, p3));\\n\\t}\\n\\n\\tfunction log(uint256 p0, string memory p1, bool p2, uint256 p3) internal view {\\n\\t\\t_sendLogPayload(abi.encodeWithSignature(\\\"log(uint256,string,bool,uint256)\\\", p0, p1, p2, p3));\\n\\t}\\n\\n\\tfunction log(uint256 p0, string memory p1, bool p2, string memory p3) internal view {\\n\\t\\t_sendLogPayload(abi.encodeWithSignature(\\\"log(uint256,string,bool,string)\\\", p0, p1, p2, p3));\\n\\t}\\n\\n\\tfunction log(uint256 p0, string memory p1, bool p2, bool p3) internal view {\\n\\t\\t_sendLogPayload(abi.encodeWithSignature(\\\"log(uint256,string,bool,bool)\\\", p0, p1, p2, p3));\\n\\t}\\n\\n\\tfunction log(uint256 p0, string memory p1, bool p2, address p3) internal view {\\n\\t\\t_sendLogPayload(abi.encodeWithSignature(\\\"log(uint256,string,bool,address)\\\", p0, p1, p2, p3));\\n\\t}\\n\\n\\tfunction log(uint256 p0, string memory p1, address p2, uint256 p3) internal view {\\n\\t\\t_sendLogPayload(abi.encodeWithSignature(\\\"log(uint256,string,address,uint256)\\\", p0, p1, p2, p3));\\n\\t}\\n\\n\\tfunction log(uint256 p0, string memory p1, address p2, string memory p3) internal view {\\n\\t\\t_sendLogPayload(abi.encodeWithSignature(\\\"log(uint256,string,address,string)\\\", p0, p1, p2, p3));\\n\\t}\\n\\n\\tfunction log(uint256 p0, string memory p1, address p2, bool p3) internal view {\\n\\t\\t_sendLogPayload(abi.encodeWithSignature(\\\"log(uint256,string,address,bool)\\\", p0, p1, p2, p3));\\n\\t}\\n\\n\\tfunction log(uint256 p0, string memory p1, address p2, address p3) internal view {\\n\\t\\t_sendLogPayload(abi.encodeWithSignature(\\\"log(uint256,string,address,address)\\\", p0, p1, p2, p3));\\n\\t}\\n\\n\\tfunction log(uint256 p0, bool p1, uint256 p2, uint256 p3) internal view {\\n\\t\\t_sendLogPayload(abi.encodeWithSignature(\\\"log(uint256,bool,uint256,uint256)\\\", p0, p1, p2, p3));\\n\\t}\\n\\n\\tfunction log(uint256 p0, bool p1, uint256 p2, string memory p3) internal view {\\n\\t\\t_sendLogPayload(abi.encodeWithSignature(\\\"log(uint256,bool,uint256,string)\\\", p0, p1, p2, p3));\\n\\t}\\n\\n\\tfunction log(uint256 p0, bool p1, uint256 p2, bool p3) internal view {\\n\\t\\t_sendLogPayload(abi.encodeWithSignature(\\\"log(uint256,bool,uint256,bool)\\\", p0, p1, p2, p3));\\n\\t}\\n\\n\\tfunction log(uint256 p0, bool p1, uint256 p2, address p3) internal view {\\n\\t\\t_sendLogPayload(abi.encodeWithSignature(\\\"log(uint256,bool,uint256,address)\\\", p0, p1, p2, p3));\\n\\t}\\n\\n\\tfunction log(uint256 p0, bool p1, string memory p2, uint256 p3) internal view {\\n\\t\\t_sendLogPayload(abi.encodeWithSignature(\\\"log(uint256,bool,string,uint256)\\\", p0, p1, p2, p3));\\n\\t}\\n\\n\\tfunction log(uint256 p0, bool p1, string memory p2, string memory p3) internal view {\\n\\t\\t_sendLogPayload(abi.encodeWithSignature(\\\"log(uint256,bool,string,string)\\\", p0, p1, p2, p3));\\n\\t}\\n\\n\\tfunction log(uint256 p0, bool p1, string memory p2, bool p3) internal view {\\n\\t\\t_sendLogPayload(abi.encodeWithSignature(\\\"log(uint256,bool,string,bool)\\\", p0, p1, p2, p3));\\n\\t}\\n\\n\\tfunction log(uint256 p0, bool p1, string memory p2, address p3) internal view {\\n\\t\\t_sendLogPayload(abi.encodeWithSignature(\\\"log(uint256,bool,string,address)\\\", p0, p1, p2, p3));\\n\\t}\\n\\n\\tfunction log(uint256 p0, bool p1, bool p2, uint256 p3) internal view {\\n\\t\\t_sendLogPayload(abi.encodeWithSignature(\\\"log(uint256,bool,bool,uint256)\\\", p0, p1, p2, p3));\\n\\t}\\n\\n\\tfunction log(uint256 p0, bool p1, bool p2, string memory p3) internal view {\\n\\t\\t_sendLogPayload(abi.encodeWithSignature(\\\"log(uint256,bool,bool,string)\\\", p0, p1, p2, p3));\\n\\t}\\n\\n\\tfunction log(uint256 p0, bool p1, bool p2, bool p3) internal view {\\n\\t\\t_sendLogPayload(abi.encodeWithSignature(\\\"log(uint256,bool,bool,bool)\\\", p0, p1, p2, p3));\\n\\t}\\n\\n\\tfunction log(uint256 p0, bool p1, bool p2, address p3) internal view {\\n\\t\\t_sendLogPayload(abi.encodeWithSignature(\\\"log(uint256,bool,bool,address)\\\", p0, p1, p2, p3));\\n\\t}\\n\\n\\tfunction log(uint256 p0, bool p1, address p2, uint256 p3) internal view {\\n\\t\\t_sendLogPayload(abi.encodeWithSignature(\\\"log(uint256,bool,address,uint256)\\\", p0, p1, p2, p3));\\n\\t}\\n\\n\\tfunction log(uint256 p0, bool p1, address p2, string memory p3) internal view {\\n\\t\\t_sendLogPayload(abi.encodeWithSignature(\\\"log(uint256,bool,address,string)\\\", p0, p1, p2, p3));\\n\\t}\\n\\n\\tfunction log(uint256 p0, bool p1, address p2, bool p3) internal view {\\n\\t\\t_sendLogPayload(abi.encodeWithSignature(\\\"log(uint256,bool,address,bool)\\\", p0, p1, p2, p3));\\n\\t}\\n\\n\\tfunction log(uint256 p0, bool p1, address p2, address p3) internal view {\\n\\t\\t_sendLogPayload(abi.encodeWithSignature(\\\"log(uint256,bool,address,address)\\\", p0, p1, p2, p3));\\n\\t}\\n\\n\\tfunction log(uint256 p0, address p1, uint256 p2, uint256 p3) internal view {\\n\\t\\t_sendLogPayload(abi.encodeWithSignature(\\\"log(uint256,address,uint256,uint256)\\\", p0, p1, p2, p3));\\n\\t}\\n\\n\\tfunction log(uint256 p0, address p1, uint256 p2, string memory p3) internal view {\\n\\t\\t_sendLogPayload(abi.encodeWithSignature(\\\"log(uint256,address,uint256,string)\\\", p0, p1, p2, p3));\\n\\t}\\n\\n\\tfunction log(uint256 p0, address p1, uint256 p2, bool p3) internal view {\\n\\t\\t_sendLogPayload(abi.encodeWithSignature(\\\"log(uint256,address,uint256,bool)\\\", p0, p1, p2, p3));\\n\\t}\\n\\n\\tfunction log(uint256 p0, address p1, uint256 p2, address p3) internal view {\\n\\t\\t_sendLogPayload(abi.encodeWithSignature(\\\"log(uint256,address,uint256,address)\\\", p0, p1, p2, p3));\\n\\t}\\n\\n\\tfunction log(uint256 p0, address p1, string memory p2, uint256 p3) internal view {\\n\\t\\t_sendLogPayload(abi.encodeWithSignature(\\\"log(uint256,address,string,uint256)\\\", p0, p1, p2, p3));\\n\\t}\\n\\n\\tfunction log(uint256 p0, address p1, string memory p2, string memory p3) internal view {\\n\\t\\t_sendLogPayload(abi.encodeWithSignature(\\\"log(uint256,address,string,string)\\\", p0, p1, p2, p3));\\n\\t}\\n\\n\\tfunction log(uint256 p0, address p1, string memory p2, bool p3) internal view {\\n\\t\\t_sendLogPayload(abi.encodeWithSignature(\\\"log(uint256,address,string,bool)\\\", p0, p1, p2, p3));\\n\\t}\\n\\n\\tfunction log(uint256 p0, address p1, string memory p2, address p3) internal view {\\n\\t\\t_sendLogPayload(abi.encodeWithSignature(\\\"log(uint256,address,string,address)\\\", p0, p1, p2, p3));\\n\\t}\\n\\n\\tfunction log(uint256 p0, address p1, bool p2, uint256 p3) internal view {\\n\\t\\t_sendLogPayload(abi.encodeWithSignature(\\\"log(uint256,address,bool,uint256)\\\", p0, p1, p2, p3));\\n\\t}\\n\\n\\tfunction log(uint256 p0, address p1, bool p2, string memory p3) internal view {\\n\\t\\t_sendLogPayload(abi.encodeWithSignature(\\\"log(uint256,address,bool,string)\\\", p0, p1, p2, p3));\\n\\t}\\n\\n\\tfunction log(uint256 p0, address p1, bool p2, bool p3) internal view {\\n\\t\\t_sendLogPayload(abi.encodeWithSignature(\\\"log(uint256,address,bool,bool)\\\", p0, p1, p2, p3));\\n\\t}\\n\\n\\tfunction log(uint256 p0, address p1, bool p2, address p3) internal view {\\n\\t\\t_sendLogPayload(abi.encodeWithSignature(\\\"log(uint256,address,bool,address)\\\", p0, p1, p2, p3));\\n\\t}\\n\\n\\tfunction log(uint256 p0, address p1, address p2, uint256 p3) internal view {\\n\\t\\t_sendLogPayload(abi.encodeWithSignature(\\\"log(uint256,address,address,uint256)\\\", p0, p1, p2, p3));\\n\\t}\\n\\n\\tfunction log(uint256 p0, address p1, address p2, string memory p3) internal view {\\n\\t\\t_sendLogPayload(abi.encodeWithSignature(\\\"log(uint256,address,address,string)\\\", p0, p1, p2, p3));\\n\\t}\\n\\n\\tfunction log(uint256 p0, address p1, address p2, bool p3) internal view {\\n\\t\\t_sendLogPayload(abi.encodeWithSignature(\\\"log(uint256,address,address,bool)\\\", p0, p1, p2, p3));\\n\\t}\\n\\n\\tfunction log(uint256 p0, address p1, address p2, address p3) internal view {\\n\\t\\t_sendLogPayload(abi.encodeWithSignature(\\\"log(uint256,address,address,address)\\\", p0, p1, p2, p3));\\n\\t}\\n\\n\\tfunction log(string memory p0, uint256 p1, uint256 p2, uint256 p3) internal view {\\n\\t\\t_sendLogPayload(abi.encodeWithSignature(\\\"log(string,uint256,uint256,uint256)\\\", p0, p1, p2, p3));\\n\\t}\\n\\n\\tfunction log(string memory p0, uint256 p1, uint256 p2, string memory p3) internal view {\\n\\t\\t_sendLogPayload(abi.encodeWithSignature(\\\"log(string,uint256,uint256,string)\\\", p0, p1, p2, p3));\\n\\t}\\n\\n\\tfunction log(string memory p0, uint256 p1, uint256 p2, bool p3) internal view {\\n\\t\\t_sendLogPayload(abi.encodeWithSignature(\\\"log(string,uint256,uint256,bool)\\\", p0, p1, p2, p3));\\n\\t}\\n\\n\\tfunction log(string memory p0, uint256 p1, uint256 p2, address p3) internal view {\\n\\t\\t_sendLogPayload(abi.encodeWithSignature(\\\"log(string,uint256,uint256,address)\\\", p0, p1, p2, p3));\\n\\t}\\n\\n\\tfunction log(string memory p0, uint256 p1, string memory p2, uint256 p3) internal view {\\n\\t\\t_sendLogPayload(abi.encodeWithSignature(\\\"log(string,uint256,string,uint256)\\\", p0, p1, p2, p3));\\n\\t}\\n\\n\\tfunction log(string memory p0, uint256 p1, string memory p2, string memory p3) internal view {\\n\\t\\t_sendLogPayload(abi.encodeWithSignature(\\\"log(string,uint256,string,string)\\\", p0, p1, p2, p3));\\n\\t}\\n\\n\\tfunction log(string memory p0, uint256 p1, string memory p2, bool p3) internal view {\\n\\t\\t_sendLogPayload(abi.encodeWithSignature(\\\"log(string,uint256,string,bool)\\\", p0, p1, p2, p3));\\n\\t}\\n\\n\\tfunction log(string memory p0, uint256 p1, string memory p2, address p3) internal view {\\n\\t\\t_sendLogPayload(abi.encodeWithSignature(\\\"log(string,uint256,string,address)\\\", p0, p1, p2, p3));\\n\\t}\\n\\n\\tfunction log(string memory p0, uint256 p1, bool p2, uint256 p3) internal view {\\n\\t\\t_sendLogPayload(abi.encodeWithSignature(\\\"log(string,uint256,bool,uint256)\\\", p0, p1, p2, p3));\\n\\t}\\n\\n\\tfunction log(string memory p0, uint256 p1, bool p2, string memory p3) internal view {\\n\\t\\t_sendLogPayload(abi.encodeWithSignature(\\\"log(string,uint256,bool,string)\\\", p0, p1, p2, p3));\\n\\t}\\n\\n\\tfunction log(string memory p0, uint256 p1, bool p2, bool p3) internal view {\\n\\t\\t_sendLogPayload(abi.encodeWithSignature(\\\"log(string,uint256,bool,bool)\\\", p0, p1, p2, p3));\\n\\t}\\n\\n\\tfunction log(string memory p0, uint256 p1, bool p2, address p3) internal view {\\n\\t\\t_sendLogPayload(abi.encodeWithSignature(\\\"log(string,uint256,bool,address)\\\", p0, p1, p2, p3));\\n\\t}\\n\\n\\tfunction log(string memory p0, uint256 p1, address p2, uint256 p3) internal view {\\n\\t\\t_sendLogPayload(abi.encodeWithSignature(\\\"log(string,uint256,address,uint256)\\\", p0, p1, p2, p3));\\n\\t}\\n\\n\\tfunction log(string memory p0, uint256 p1, address p2, string memory p3) internal view {\\n\\t\\t_sendLogPayload(abi.encodeWithSignature(\\\"log(string,uint256,address,string)\\\", p0, p1, p2, p3));\\n\\t}\\n\\n\\tfunction log(string memory p0, uint256 p1, address p2, bool p3) internal view {\\n\\t\\t_sendLogPayload(abi.encodeWithSignature(\\\"log(string,uint256,address,bool)\\\", p0, p1, p2, p3));\\n\\t}\\n\\n\\tfunction log(string memory p0, uint256 p1, address p2, address p3) internal view {\\n\\t\\t_sendLogPayload(abi.encodeWithSignature(\\\"log(string,uint256,address,address)\\\", p0, p1, p2, p3));\\n\\t}\\n\\n\\tfunction log(string memory p0, string memory p1, uint256 p2, uint256 p3) internal view {\\n\\t\\t_sendLogPayload(abi.encodeWithSignature(\\\"log(string,string,uint256,uint256)\\\", p0, p1, p2, p3));\\n\\t}\\n\\n\\tfunction log(string memory p0, string memory p1, uint256 p2, string memory p3) internal view {\\n\\t\\t_sendLogPayload(abi.encodeWithSignature(\\\"log(string,string,uint256,string)\\\", p0, p1, p2, p3));\\n\\t}\\n\\n\\tfunction log(string memory p0, string memory p1, uint256 p2, bool p3) internal view {\\n\\t\\t_sendLogPayload(abi.encodeWithSignature(\\\"log(string,string,uint256,bool)\\\", p0, p1, p2, p3));\\n\\t}\\n\\n\\tfunction log(string memory p0, string memory p1, uint256 p2, address p3) internal view {\\n\\t\\t_sendLogPayload(abi.encodeWithSignature(\\\"log(string,string,uint256,address)\\\", p0, p1, p2, p3));\\n\\t}\\n\\n\\tfunction log(string memory p0, string memory p1, string memory p2, uint256 p3) internal view {\\n\\t\\t_sendLogPayload(abi.encodeWithSignature(\\\"log(string,string,string,uint256)\\\", p0, p1, p2, p3));\\n\\t}\\n\\n\\tfunction log(string memory p0, string memory p1, string memory p2, string memory p3) internal view {\\n\\t\\t_sendLogPayload(abi.encodeWithSignature(\\\"log(string,string,string,string)\\\", p0, p1, p2, p3));\\n\\t}\\n\\n\\tfunction log(string memory p0, string memory p1, string memory p2, bool p3) internal view {\\n\\t\\t_sendLogPayload(abi.encodeWithSignature(\\\"log(string,string,string,bool)\\\", p0, p1, p2, p3));\\n\\t}\\n\\n\\tfunction log(string memory p0, string memory p1, string memory p2, address p3) internal view {\\n\\t\\t_sendLogPayload(abi.encodeWithSignature(\\\"log(string,string,string,address)\\\", p0, p1, p2, p3));\\n\\t}\\n\\n\\tfunction log(string memory p0, string memory p1, bool p2, uint256 p3) internal view {\\n\\t\\t_sendLogPayload(abi.encodeWithSignature(\\\"log(string,string,bool,uint256)\\\", p0, p1, p2, p3));\\n\\t}\\n\\n\\tfunction log(string memory p0, string memory p1, bool p2, string memory p3) internal view {\\n\\t\\t_sendLogPayload(abi.encodeWithSignature(\\\"log(string,string,bool,string)\\\", p0, p1, p2, p3));\\n\\t}\\n\\n\\tfunction log(string memory p0, string memory p1, bool p2, bool p3) internal view {\\n\\t\\t_sendLogPayload(abi.encodeWithSignature(\\\"log(string,string,bool,bool)\\\", p0, p1, p2, p3));\\n\\t}\\n\\n\\tfunction log(string memory p0, string memory p1, bool p2, address p3) internal view {\\n\\t\\t_sendLogPayload(abi.encodeWithSignature(\\\"log(string,string,bool,address)\\\", p0, p1, p2, p3));\\n\\t}\\n\\n\\tfunction log(string memory p0, string memory p1, address p2, uint256 p3) internal view {\\n\\t\\t_sendLogPayload(abi.encodeWithSignature(\\\"log(string,string,address,uint256)\\\", p0, p1, p2, p3));\\n\\t}\\n\\n\\tfunction log(string memory p0, string memory p1, address p2, string memory p3) internal view {\\n\\t\\t_sendLogPayload(abi.encodeWithSignature(\\\"log(string,string,address,string)\\\", p0, p1, p2, p3));\\n\\t}\\n\\n\\tfunction log(string memory p0, string memory p1, address p2, bool p3) internal view {\\n\\t\\t_sendLogPayload(abi.encodeWithSignature(\\\"log(string,string,address,bool)\\\", p0, p1, p2, p3));\\n\\t}\\n\\n\\tfunction log(string memory p0, string memory p1, address p2, address p3) internal view {\\n\\t\\t_sendLogPayload(abi.encodeWithSignature(\\\"log(string,string,address,address)\\\", p0, p1, p2, p3));\\n\\t}\\n\\n\\tfunction log(string memory p0, bool p1, uint256 p2, uint256 p3) internal view {\\n\\t\\t_sendLogPayload(abi.encodeWithSignature(\\\"log(string,bool,uint256,uint256)\\\", p0, p1, p2, p3));\\n\\t}\\n\\n\\tfunction log(string memory p0, bool p1, uint256 p2, string memory p3) internal view {\\n\\t\\t_sendLogPayload(abi.encodeWithSignature(\\\"log(string,bool,uint256,string)\\\", p0, p1, p2, p3));\\n\\t}\\n\\n\\tfunction log(string memory p0, bool p1, uint256 p2, bool p3) internal view {\\n\\t\\t_sendLogPayload(abi.encodeWithSignature(\\\"log(string,bool,uint256,bool)\\\", p0, p1, p2, p3));\\n\\t}\\n\\n\\tfunction log(string memory p0, bool p1, uint256 p2, address p3) internal view {\\n\\t\\t_sendLogPayload(abi.encodeWithSignature(\\\"log(string,bool,uint256,address)\\\", p0, p1, p2, p3));\\n\\t}\\n\\n\\tfunction log(string memory p0, bool p1, string memory p2, uint256 p3) internal view {\\n\\t\\t_sendLogPayload(abi.encodeWithSignature(\\\"log(string,bool,string,uint256)\\\", p0, p1, p2, p3));\\n\\t}\\n\\n\\tfunction log(string memory p0, bool p1, string memory p2, string memory p3) internal view {\\n\\t\\t_sendLogPayload(abi.encodeWithSignature(\\\"log(string,bool,string,string)\\\", p0, p1, p2, p3));\\n\\t}\\n\\n\\tfunction log(string memory p0, bool p1, string memory p2, bool p3) internal view {\\n\\t\\t_sendLogPayload(abi.encodeWithSignature(\\\"log(string,bool,string,bool)\\\", p0, p1, p2, p3));\\n\\t}\\n\\n\\tfunction log(string memory p0, bool p1, string memory p2, address p3) internal view {\\n\\t\\t_sendLogPayload(abi.encodeWithSignature(\\\"log(string,bool,string,address)\\\", p0, p1, p2, p3));\\n\\t}\\n\\n\\tfunction log(string memory p0, bool p1, bool p2, uint256 p3) internal view {\\n\\t\\t_sendLogPayload(abi.encodeWithSignature(\\\"log(string,bool,bool,uint256)\\\", p0, p1, p2, p3));\\n\\t}\\n\\n\\tfunction log(string memory p0, bool p1, bool p2, string memory p3) internal view {\\n\\t\\t_sendLogPayload(abi.encodeWithSignature(\\\"log(string,bool,bool,string)\\\", p0, p1, p2, p3));\\n\\t}\\n\\n\\tfunction log(string memory p0, bool p1, bool p2, bool p3) internal view {\\n\\t\\t_sendLogPayload(abi.encodeWithSignature(\\\"log(string,bool,bool,bool)\\\", p0, p1, p2, p3));\\n\\t}\\n\\n\\tfunction log(string memory p0, bool p1, bool p2, address p3) internal view {\\n\\t\\t_sendLogPayload(abi.encodeWithSignature(\\\"log(string,bool,bool,address)\\\", p0, p1, p2, p3));\\n\\t}\\n\\n\\tfunction log(string memory p0, bool p1, address p2, uint256 p3) internal view {\\n\\t\\t_sendLogPayload(abi.encodeWithSignature(\\\"log(string,bool,address,uint256)\\\", p0, p1, p2, p3));\\n\\t}\\n\\n\\tfunction log(string memory p0, bool p1, address p2, string memory p3) internal view {\\n\\t\\t_sendLogPayload(abi.encodeWithSignature(\\\"log(string,bool,address,string)\\\", p0, p1, p2, p3));\\n\\t}\\n\\n\\tfunction log(string memory p0, bool p1, address p2, bool p3) internal view {\\n\\t\\t_sendLogPayload(abi.encodeWithSignature(\\\"log(string,bool,address,bool)\\\", p0, p1, p2, p3));\\n\\t}\\n\\n\\tfunction log(string memory p0, bool p1, address p2, address p3) internal view {\\n\\t\\t_sendLogPayload(abi.encodeWithSignature(\\\"log(string,bool,address,address)\\\", p0, p1, p2, p3));\\n\\t}\\n\\n\\tfunction log(string memory p0, address p1, uint256 p2, uint256 p3) internal view {\\n\\t\\t_sendLogPayload(abi.encodeWithSignature(\\\"log(string,address,uint256,uint256)\\\", p0, p1, p2, p3));\\n\\t}\\n\\n\\tfunction log(string memory p0, address p1, uint256 p2, string memory p3) internal view {\\n\\t\\t_sendLogPayload(abi.encodeWithSignature(\\\"log(string,address,uint256,string)\\\", p0, p1, p2, p3));\\n\\t}\\n\\n\\tfunction log(string memory p0, address p1, uint256 p2, bool p3) internal view {\\n\\t\\t_sendLogPayload(abi.encodeWithSignature(\\\"log(string,address,uint256,bool)\\\", p0, p1, p2, p3));\\n\\t}\\n\\n\\tfunction log(string memory p0, address p1, uint256 p2, address p3) internal view {\\n\\t\\t_sendLogPayload(abi.encodeWithSignature(\\\"log(string,address,uint256,address)\\\", p0, p1, p2, p3));\\n\\t}\\n\\n\\tfunction log(string memory p0, address p1, string memory p2, uint256 p3) internal view {\\n\\t\\t_sendLogPayload(abi.encodeWithSignature(\\\"log(string,address,string,uint256)\\\", p0, p1, p2, p3));\\n\\t}\\n\\n\\tfunction log(string memory p0, address p1, string memory p2, string memory p3) internal view {\\n\\t\\t_sendLogPayload(abi.encodeWithSignature(\\\"log(string,address,string,string)\\\", p0, p1, p2, p3));\\n\\t}\\n\\n\\tfunction log(string memory p0, address p1, string memory p2, bool p3) internal view {\\n\\t\\t_sendLogPayload(abi.encodeWithSignature(\\\"log(string,address,string,bool)\\\", p0, p1, p2, p3));\\n\\t}\\n\\n\\tfunction log(string memory p0, address p1, string memory p2, address p3) internal view {\\n\\t\\t_sendLogPayload(abi.encodeWithSignature(\\\"log(string,address,string,address)\\\", p0, p1, p2, p3));\\n\\t}\\n\\n\\tfunction log(string memory p0, address p1, bool p2, uint256 p3) internal view {\\n\\t\\t_sendLogPayload(abi.encodeWithSignature(\\\"log(string,address,bool,uint256)\\\", p0, p1, p2, p3));\\n\\t}\\n\\n\\tfunction log(string memory p0, address p1, bool p2, string memory p3) internal view {\\n\\t\\t_sendLogPayload(abi.encodeWithSignature(\\\"log(string,address,bool,string)\\\", p0, p1, p2, p3));\\n\\t}\\n\\n\\tfunction log(string memory p0, address p1, bool p2, bool p3) internal view {\\n\\t\\t_sendLogPayload(abi.encodeWithSignature(\\\"log(string,address,bool,bool)\\\", p0, p1, p2, p3));\\n\\t}\\n\\n\\tfunction log(string memory p0, address p1, bool p2, address p3) internal view {\\n\\t\\t_sendLogPayload(abi.encodeWithSignature(\\\"log(string,address,bool,address)\\\", p0, p1, p2, p3));\\n\\t}\\n\\n\\tfunction log(string memory p0, address p1, address p2, uint256 p3) internal view {\\n\\t\\t_sendLogPayload(abi.encodeWithSignature(\\\"log(string,address,address,uint256)\\\", p0, p1, p2, p3));\\n\\t}\\n\\n\\tfunction log(string memory p0, address p1, address p2, string memory p3) internal view {\\n\\t\\t_sendLogPayload(abi.encodeWithSignature(\\\"log(string,address,address,string)\\\", p0, p1, p2, p3));\\n\\t}\\n\\n\\tfunction log(string memory p0, address p1, address p2, bool p3) internal view {\\n\\t\\t_sendLogPayload(abi.encodeWithSignature(\\\"log(string,address,address,bool)\\\", p0, p1, p2, p3));\\n\\t}\\n\\n\\tfunction log(string memory p0, address p1, address p2, address p3) internal view {\\n\\t\\t_sendLogPayload(abi.encodeWithSignature(\\\"log(string,address,address,address)\\\", p0, p1, p2, p3));\\n\\t}\\n\\n\\tfunction log(bool p0, uint256 p1, uint256 p2, uint256 p3) internal view {\\n\\t\\t_sendLogPayload(abi.encodeWithSignature(\\\"log(bool,uint256,uint256,uint256)\\\", p0, p1, p2, p3));\\n\\t}\\n\\n\\tfunction log(bool p0, uint256 p1, uint256 p2, string memory p3) internal view {\\n\\t\\t_sendLogPayload(abi.encodeWithSignature(\\\"log(bool,uint256,uint256,string)\\\", p0, p1, p2, p3));\\n\\t}\\n\\n\\tfunction log(bool p0, uint256 p1, uint256 p2, bool p3) internal view {\\n\\t\\t_sendLogPayload(abi.encodeWithSignature(\\\"log(bool,uint256,uint256,bool)\\\", p0, p1, p2, p3));\\n\\t}\\n\\n\\tfunction log(bool p0, uint256 p1, uint256 p2, address p3) internal view {\\n\\t\\t_sendLogPayload(abi.encodeWithSignature(\\\"log(bool,uint256,uint256,address)\\\", p0, p1, p2, p3));\\n\\t}\\n\\n\\tfunction log(bool p0, uint256 p1, string memory p2, uint256 p3) internal view {\\n\\t\\t_sendLogPayload(abi.encodeWithSignature(\\\"log(bool,uint256,string,uint256)\\\", p0, p1, p2, p3));\\n\\t}\\n\\n\\tfunction log(bool p0, uint256 p1, string memory p2, string memory p3) internal view {\\n\\t\\t_sendLogPayload(abi.encodeWithSignature(\\\"log(bool,uint256,string,string)\\\", p0, p1, p2, p3));\\n\\t}\\n\\n\\tfunction log(bool p0, uint256 p1, string memory p2, bool p3) internal view {\\n\\t\\t_sendLogPayload(abi.encodeWithSignature(\\\"log(bool,uint256,string,bool)\\\", p0, p1, p2, p3));\\n\\t}\\n\\n\\tfunction log(bool p0, uint256 p1, string memory p2, address p3) internal view {\\n\\t\\t_sendLogPayload(abi.encodeWithSignature(\\\"log(bool,uint256,string,address)\\\", p0, p1, p2, p3));\\n\\t}\\n\\n\\tfunction log(bool p0, uint256 p1, bool p2, uint256 p3) internal view {\\n\\t\\t_sendLogPayload(abi.encodeWithSignature(\\\"log(bool,uint256,bool,uint256)\\\", p0, p1, p2, p3));\\n\\t}\\n\\n\\tfunction log(bool p0, uint256 p1, bool p2, string memory p3) internal view {\\n\\t\\t_sendLogPayload(abi.encodeWithSignature(\\\"log(bool,uint256,bool,string)\\\", p0, p1, p2, p3));\\n\\t}\\n\\n\\tfunction log(bool p0, uint256 p1, bool p2, bool p3) internal view {\\n\\t\\t_sendLogPayload(abi.encodeWithSignature(\\\"log(bool,uint256,bool,bool)\\\", p0, p1, p2, p3));\\n\\t}\\n\\n\\tfunction log(bool p0, uint256 p1, bool p2, address p3) internal view {\\n\\t\\t_sendLogPayload(abi.encodeWithSignature(\\\"log(bool,uint256,bool,address)\\\", p0, p1, p2, p3));\\n\\t}\\n\\n\\tfunction log(bool p0, uint256 p1, address p2, uint256 p3) internal view {\\n\\t\\t_sendLogPayload(abi.encodeWithSignature(\\\"log(bool,uint256,address,uint256)\\\", p0, p1, p2, p3));\\n\\t}\\n\\n\\tfunction log(bool p0, uint256 p1, address p2, string memory p3) internal view {\\n\\t\\t_sendLogPayload(abi.encodeWithSignature(\\\"log(bool,uint256,address,string)\\\", p0, p1, p2, p3));\\n\\t}\\n\\n\\tfunction log(bool p0, uint256 p1, address p2, bool p3) internal view {\\n\\t\\t_sendLogPayload(abi.encodeWithSignature(\\\"log(bool,uint256,address,bool)\\\", p0, p1, p2, p3));\\n\\t}\\n\\n\\tfunction log(bool p0, uint256 p1, address p2, address p3) internal view {\\n\\t\\t_sendLogPayload(abi.encodeWithSignature(\\\"log(bool,uint256,address,address)\\\", p0, p1, p2, p3));\\n\\t}\\n\\n\\tfunction log(bool p0, string memory p1, uint256 p2, uint256 p3) internal view {\\n\\t\\t_sendLogPayload(abi.encodeWithSignature(\\\"log(bool,string,uint256,uint256)\\\", p0, p1, p2, p3));\\n\\t}\\n\\n\\tfunction log(bool p0, string memory p1, uint256 p2, string memory p3) internal view {\\n\\t\\t_sendLogPayload(abi.encodeWithSignature(\\\"log(bool,string,uint256,string)\\\", p0, p1, p2, p3));\\n\\t}\\n\\n\\tfunction log(bool p0, string memory p1, uint256 p2, bool p3) internal view {\\n\\t\\t_sendLogPayload(abi.encodeWithSignature(\\\"log(bool,string,uint256,bool)\\\", p0, p1, p2, p3));\\n\\t}\\n\\n\\tfunction log(bool p0, string memory p1, uint256 p2, address p3) internal view {\\n\\t\\t_sendLogPayload(abi.encodeWithSignature(\\\"log(bool,string,uint256,address)\\\", p0, p1, p2, p3));\\n\\t}\\n\\n\\tfunction log(bool p0, string memory p1, string memory p2, uint256 p3) internal view {\\n\\t\\t_sendLogPayload(abi.encodeWithSignature(\\\"log(bool,string,string,uint256)\\\", p0, p1, p2, p3));\\n\\t}\\n\\n\\tfunction log(bool p0, string memory p1, string memory p2, string memory p3) internal view {\\n\\t\\t_sendLogPayload(abi.encodeWithSignature(\\\"log(bool,string,string,string)\\\", p0, p1, p2, p3));\\n\\t}\\n\\n\\tfunction log(bool p0, string memory p1, string memory p2, bool p3) internal view {\\n\\t\\t_sendLogPayload(abi.encodeWithSignature(\\\"log(bool,string,string,bool)\\\", p0, p1, p2, p3));\\n\\t}\\n\\n\\tfunction log(bool p0, string memory p1, string memory p2, address p3) internal view {\\n\\t\\t_sendLogPayload(abi.encodeWithSignature(\\\"log(bool,string,string,address)\\\", p0, p1, p2, p3));\\n\\t}\\n\\n\\tfunction log(bool p0, string memory p1, bool p2, uint256 p3) internal view {\\n\\t\\t_sendLogPayload(abi.encodeWithSignature(\\\"log(bool,string,bool,uint256)\\\", p0, p1, p2, p3));\\n\\t}\\n\\n\\tfunction log(bool p0, string memory p1, bool p2, string memory p3) internal view {\\n\\t\\t_sendLogPayload(abi.encodeWithSignature(\\\"log(bool,string,bool,string)\\\", p0, p1, p2, p3));\\n\\t}\\n\\n\\tfunction log(bool p0, string memory p1, bool p2, bool p3) internal view {\\n\\t\\t_sendLogPayload(abi.encodeWithSignature(\\\"log(bool,string,bool,bool)\\\", p0, p1, p2, p3));\\n\\t}\\n\\n\\tfunction log(bool p0, string memory p1, bool p2, address p3) internal view {\\n\\t\\t_sendLogPayload(abi.encodeWithSignature(\\\"log(bool,string,bool,address)\\\", p0, p1, p2, p3));\\n\\t}\\n\\n\\tfunction log(bool p0, string memory p1, address p2, uint256 p3) internal view {\\n\\t\\t_sendLogPayload(abi.encodeWithSignature(\\\"log(bool,string,address,uint256)\\\", p0, p1, p2, p3));\\n\\t}\\n\\n\\tfunction log(bool p0, string memory p1, address p2, string memory p3) internal view {\\n\\t\\t_sendLogPayload(abi.encodeWithSignature(\\\"log(bool,string,address,string)\\\", p0, p1, p2, p3));\\n\\t}\\n\\n\\tfunction log(bool p0, string memory p1, address p2, bool p3) internal view {\\n\\t\\t_sendLogPayload(abi.encodeWithSignature(\\\"log(bool,string,address,bool)\\\", p0, p1, p2, p3));\\n\\t}\\n\\n\\tfunction log(bool p0, string memory p1, address p2, address p3) internal view {\\n\\t\\t_sendLogPayload(abi.encodeWithSignature(\\\"log(bool,string,address,address)\\\", p0, p1, p2, p3));\\n\\t}\\n\\n\\tfunction log(bool p0, bool p1, uint256 p2, uint256 p3) internal view {\\n\\t\\t_sendLogPayload(abi.encodeWithSignature(\\\"log(bool,bool,uint256,uint256)\\\", p0, p1, p2, p3));\\n\\t}\\n\\n\\tfunction log(bool p0, bool p1, uint256 p2, string memory p3) internal view {\\n\\t\\t_sendLogPayload(abi.encodeWithSignature(\\\"log(bool,bool,uint256,string)\\\", p0, p1, p2, p3));\\n\\t}\\n\\n\\tfunction log(bool p0, bool p1, uint256 p2, bool p3) internal view {\\n\\t\\t_sendLogPayload(abi.encodeWithSignature(\\\"log(bool,bool,uint256,bool)\\\", p0, p1, p2, p3));\\n\\t}\\n\\n\\tfunction log(bool p0, bool p1, uint256 p2, address p3) internal view {\\n\\t\\t_sendLogPayload(abi.encodeWithSignature(\\\"log(bool,bool,uint256,address)\\\", p0, p1, p2, p3));\\n\\t}\\n\\n\\tfunction log(bool p0, bool p1, string memory p2, uint256 p3) internal view {\\n\\t\\t_sendLogPayload(abi.encodeWithSignature(\\\"log(bool,bool,string,uint256)\\\", p0, p1, p2, p3));\\n\\t}\\n\\n\\tfunction log(bool p0, bool p1, string memory p2, string memory p3) internal view {\\n\\t\\t_sendLogPayload(abi.encodeWithSignature(\\\"log(bool,bool,string,string)\\\", p0, p1, p2, p3));\\n\\t}\\n\\n\\tfunction log(bool p0, bool p1, string memory p2, bool p3) internal view {\\n\\t\\t_sendLogPayload(abi.encodeWithSignature(\\\"log(bool,bool,string,bool)\\\", p0, p1, p2, p3));\\n\\t}\\n\\n\\tfunction log(bool p0, bool p1, string memory p2, address p3) internal view {\\n\\t\\t_sendLogPayload(abi.encodeWithSignature(\\\"log(bool,bool,string,address)\\\", p0, p1, p2, p3));\\n\\t}\\n\\n\\tfunction log(bool p0, bool p1, bool p2, uint256 p3) internal view {\\n\\t\\t_sendLogPayload(abi.encodeWithSignature(\\\"log(bool,bool,bool,uint256)\\\", p0, p1, p2, p3));\\n\\t}\\n\\n\\tfunction log(bool p0, bool p1, bool p2, string memory p3) internal view {\\n\\t\\t_sendLogPayload(abi.encodeWithSignature(\\\"log(bool,bool,bool,string)\\\", p0, p1, p2, p3));\\n\\t}\\n\\n\\tfunction log(bool p0, bool p1, bool p2, bool p3) internal view {\\n\\t\\t_sendLogPayload(abi.encodeWithSignature(\\\"log(bool,bool,bool,bool)\\\", p0, p1, p2, p3));\\n\\t}\\n\\n\\tfunction log(bool p0, bool p1, bool p2, address p3) internal view {\\n\\t\\t_sendLogPayload(abi.encodeWithSignature(\\\"log(bool,bool,bool,address)\\\", p0, p1, p2, p3));\\n\\t}\\n\\n\\tfunction log(bool p0, bool p1, address p2, uint256 p3) internal view {\\n\\t\\t_sendLogPayload(abi.encodeWithSignature(\\\"log(bool,bool,address,uint256)\\\", p0, p1, p2, p3));\\n\\t}\\n\\n\\tfunction log(bool p0, bool p1, address p2, string memory p3) internal view {\\n\\t\\t_sendLogPayload(abi.encodeWithSignature(\\\"log(bool,bool,address,string)\\\", p0, p1, p2, p3));\\n\\t}\\n\\n\\tfunction log(bool p0, bool p1, address p2, bool p3) internal view {\\n\\t\\t_sendLogPayload(abi.encodeWithSignature(\\\"log(bool,bool,address,bool)\\\", p0, p1, p2, p3));\\n\\t}\\n\\n\\tfunction log(bool p0, bool p1, address p2, address p3) internal view {\\n\\t\\t_sendLogPayload(abi.encodeWithSignature(\\\"log(bool,bool,address,address)\\\", p0, p1, p2, p3));\\n\\t}\\n\\n\\tfunction log(bool p0, address p1, uint256 p2, uint256 p3) internal view {\\n\\t\\t_sendLogPayload(abi.encodeWithSignature(\\\"log(bool,address,uint256,uint256)\\\", p0, p1, p2, p3));\\n\\t}\\n\\n\\tfunction log(bool p0, address p1, uint256 p2, string memory p3) internal view {\\n\\t\\t_sendLogPayload(abi.encodeWithSignature(\\\"log(bool,address,uint256,string)\\\", p0, p1, p2, p3));\\n\\t}\\n\\n\\tfunction log(bool p0, address p1, uint256 p2, bool p3) internal view {\\n\\t\\t_sendLogPayload(abi.encodeWithSignature(\\\"log(bool,address,uint256,bool)\\\", p0, p1, p2, p3));\\n\\t}\\n\\n\\tfunction log(bool p0, address p1, uint256 p2, address p3) internal view {\\n\\t\\t_sendLogPayload(abi.encodeWithSignature(\\\"log(bool,address,uint256,address)\\\", p0, p1, p2, p3));\\n\\t}\\n\\n\\tfunction log(bool p0, address p1, string memory p2, uint256 p3) internal view {\\n\\t\\t_sendLogPayload(abi.encodeWithSignature(\\\"log(bool,address,string,uint256)\\\", p0, p1, p2, p3));\\n\\t}\\n\\n\\tfunction log(bool p0, address p1, string memory p2, string memory p3) internal view {\\n\\t\\t_sendLogPayload(abi.encodeWithSignature(\\\"log(bool,address,string,string)\\\", p0, p1, p2, p3));\\n\\t}\\n\\n\\tfunction log(bool p0, address p1, string memory p2, bool p3) internal view {\\n\\t\\t_sendLogPayload(abi.encodeWithSignature(\\\"log(bool,address,string,bool)\\\", p0, p1, p2, p3));\\n\\t}\\n\\n\\tfunction log(bool p0, address p1, string memory p2, address p3) internal view {\\n\\t\\t_sendLogPayload(abi.encodeWithSignature(\\\"log(bool,address,string,address)\\\", p0, p1, p2, p3));\\n\\t}\\n\\n\\tfunction log(bool p0, address p1, bool p2, uint256 p3) internal view {\\n\\t\\t_sendLogPayload(abi.encodeWithSignature(\\\"log(bool,address,bool,uint256)\\\", p0, p1, p2, p3));\\n\\t}\\n\\n\\tfunction log(bool p0, address p1, bool p2, string memory p3) internal view {\\n\\t\\t_sendLogPayload(abi.encodeWithSignature(\\\"log(bool,address,bool,string)\\\", p0, p1, p2, p3));\\n\\t}\\n\\n\\tfunction log(bool p0, address p1, bool p2, bool p3) internal view {\\n\\t\\t_sendLogPayload(abi.encodeWithSignature(\\\"log(bool,address,bool,bool)\\\", p0, p1, p2, p3));\\n\\t}\\n\\n\\tfunction log(bool p0, address p1, bool p2, address p3) internal view {\\n\\t\\t_sendLogPayload(abi.encodeWithSignature(\\\"log(bool,address,bool,address)\\\", p0, p1, p2, p3));\\n\\t}\\n\\n\\tfunction log(bool p0, address p1, address p2, uint256 p3) internal view {\\n\\t\\t_sendLogPayload(abi.encodeWithSignature(\\\"log(bool,address,address,uint256)\\\", p0, p1, p2, p3));\\n\\t}\\n\\n\\tfunction log(bool p0, address p1, address p2, string memory p3) internal view {\\n\\t\\t_sendLogPayload(abi.encodeWithSignature(\\\"log(bool,address,address,string)\\\", p0, p1, p2, p3));\\n\\t}\\n\\n\\tfunction log(bool p0, address p1, address p2, bool p3) internal view {\\n\\t\\t_sendLogPayload(abi.encodeWithSignature(\\\"log(bool,address,address,bool)\\\", p0, p1, p2, p3));\\n\\t}\\n\\n\\tfunction log(bool p0, address p1, address p2, address p3) internal view {\\n\\t\\t_sendLogPayload(abi.encodeWithSignature(\\\"log(bool,address,address,address)\\\", p0, p1, p2, p3));\\n\\t}\\n\\n\\tfunction log(address p0, uint256 p1, uint256 p2, uint256 p3) internal view {\\n\\t\\t_sendLogPayload(abi.encodeWithSignature(\\\"log(address,uint256,uint256,uint256)\\\", p0, p1, p2, p3));\\n\\t}\\n\\n\\tfunction log(address p0, uint256 p1, uint256 p2, string memory p3) internal view {\\n\\t\\t_sendLogPayload(abi.encodeWithSignature(\\\"log(address,uint256,uint256,string)\\\", p0, p1, p2, p3));\\n\\t}\\n\\n\\tfunction log(address p0, uint256 p1, uint256 p2, bool p3) internal view {\\n\\t\\t_sendLogPayload(abi.encodeWithSignature(\\\"log(address,uint256,uint256,bool)\\\", p0, p1, p2, p3));\\n\\t}\\n\\n\\tfunction log(address p0, uint256 p1, uint256 p2, address p3) internal view {\\n\\t\\t_sendLogPayload(abi.encodeWithSignature(\\\"log(address,uint256,uint256,address)\\\", p0, p1, p2, p3));\\n\\t}\\n\\n\\tfunction log(address p0, uint256 p1, string memory p2, uint256 p3) internal view {\\n\\t\\t_sendLogPayload(abi.encodeWithSignature(\\\"log(address,uint256,string,uint256)\\\", p0, p1, p2, p3));\\n\\t}\\n\\n\\tfunction log(address p0, uint256 p1, string memory p2, string memory p3) internal view {\\n\\t\\t_sendLogPayload(abi.encodeWithSignature(\\\"log(address,uint256,string,string)\\\", p0, p1, p2, p3));\\n\\t}\\n\\n\\tfunction log(address p0, uint256 p1, string memory p2, bool p3) internal view {\\n\\t\\t_sendLogPayload(abi.encodeWithSignature(\\\"log(address,uint256,string,bool)\\\", p0, p1, p2, p3));\\n\\t}\\n\\n\\tfunction log(address p0, uint256 p1, string memory p2, address p3) internal view {\\n\\t\\t_sendLogPayload(abi.encodeWithSignature(\\\"log(address,uint256,string,address)\\\", p0, p1, p2, p3));\\n\\t}\\n\\n\\tfunction log(address p0, uint256 p1, bool p2, uint256 p3) internal view {\\n\\t\\t_sendLogPayload(abi.encodeWithSignature(\\\"log(address,uint256,bool,uint256)\\\", p0, p1, p2, p3));\\n\\t}\\n\\n\\tfunction log(address p0, uint256 p1, bool p2, string memory p3) internal view {\\n\\t\\t_sendLogPayload(abi.encodeWithSignature(\\\"log(address,uint256,bool,string)\\\", p0, p1, p2, p3));\\n\\t}\\n\\n\\tfunction log(address p0, uint256 p1, bool p2, bool p3) internal view {\\n\\t\\t_sendLogPayload(abi.encodeWithSignature(\\\"log(address,uint256,bool,bool)\\\", p0, p1, p2, p3));\\n\\t}\\n\\n\\tfunction log(address p0, uint256 p1, bool p2, address p3) internal view {\\n\\t\\t_sendLogPayload(abi.encodeWithSignature(\\\"log(address,uint256,bool,address)\\\", p0, p1, p2, p3));\\n\\t}\\n\\n\\tfunction log(address p0, uint256 p1, address p2, uint256 p3) internal view {\\n\\t\\t_sendLogPayload(abi.encodeWithSignature(\\\"log(address,uint256,address,uint256)\\\", p0, p1, p2, p3));\\n\\t}\\n\\n\\tfunction log(address p0, uint256 p1, address p2, string memory p3) internal view {\\n\\t\\t_sendLogPayload(abi.encodeWithSignature(\\\"log(address,uint256,address,string)\\\", p0, p1, p2, p3));\\n\\t}\\n\\n\\tfunction log(address p0, uint256 p1, address p2, bool p3) internal view {\\n\\t\\t_sendLogPayload(abi.encodeWithSignature(\\\"log(address,uint256,address,bool)\\\", p0, p1, p2, p3));\\n\\t}\\n\\n\\tfunction log(address p0, uint256 p1, address p2, address p3) internal view {\\n\\t\\t_sendLogPayload(abi.encodeWithSignature(\\\"log(address,uint256,address,address)\\\", p0, p1, p2, p3));\\n\\t}\\n\\n\\tfunction log(address p0, string memory p1, uint256 p2, uint256 p3) internal view {\\n\\t\\t_sendLogPayload(abi.encodeWithSignature(\\\"log(address,string,uint256,uint256)\\\", p0, p1, p2, p3));\\n\\t}\\n\\n\\tfunction log(address p0, string memory p1, uint256 p2, string memory p3) internal view {\\n\\t\\t_sendLogPayload(abi.encodeWithSignature(\\\"log(address,string,uint256,string)\\\", p0, p1, p2, p3));\\n\\t}\\n\\n\\tfunction log(address p0, string memory p1, uint256 p2, bool p3) internal view {\\n\\t\\t_sendLogPayload(abi.encodeWithSignature(\\\"log(address,string,uint256,bool)\\\", p0, p1, p2, p3));\\n\\t}\\n\\n\\tfunction log(address p0, string memory p1, uint256 p2, address p3) internal view {\\n\\t\\t_sendLogPayload(abi.encodeWithSignature(\\\"log(address,string,uint256,address)\\\", p0, p1, p2, p3));\\n\\t}\\n\\n\\tfunction log(address p0, string memory p1, string memory p2, uint256 p3) internal view {\\n\\t\\t_sendLogPayload(abi.encodeWithSignature(\\\"log(address,string,string,uint256)\\\", p0, p1, p2, p3));\\n\\t}\\n\\n\\tfunction log(address p0, string memory p1, string memory p2, string memory p3) internal view {\\n\\t\\t_sendLogPayload(abi.encodeWithSignature(\\\"log(address,string,string,string)\\\", p0, p1, p2, p3));\\n\\t}\\n\\n\\tfunction log(address p0, string memory p1, string memory p2, bool p3) internal view {\\n\\t\\t_sendLogPayload(abi.encodeWithSignature(\\\"log(address,string,string,bool)\\\", p0, p1, p2, p3));\\n\\t}\\n\\n\\tfunction log(address p0, string memory p1, string memory p2, address p3) internal view {\\n\\t\\t_sendLogPayload(abi.encodeWithSignature(\\\"log(address,string,string,address)\\\", p0, p1, p2, p3));\\n\\t}\\n\\n\\tfunction log(address p0, string memory p1, bool p2, uint256 p3) internal view {\\n\\t\\t_sendLogPayload(abi.encodeWithSignature(\\\"log(address,string,bool,uint256)\\\", p0, p1, p2, p3));\\n\\t}\\n\\n\\tfunction log(address p0, string memory p1, bool p2, string memory p3) internal view {\\n\\t\\t_sendLogPayload(abi.encodeWithSignature(\\\"log(address,string,bool,string)\\\", p0, p1, p2, p3));\\n\\t}\\n\\n\\tfunction log(address p0, string memory p1, bool p2, bool p3) internal view {\\n\\t\\t_sendLogPayload(abi.encodeWithSignature(\\\"log(address,string,bool,bool)\\\", p0, p1, p2, p3));\\n\\t}\\n\\n\\tfunction log(address p0, string memory p1, bool p2, address p3) internal view {\\n\\t\\t_sendLogPayload(abi.encodeWithSignature(\\\"log(address,string,bool,address)\\\", p0, p1, p2, p3));\\n\\t}\\n\\n\\tfunction log(address p0, string memory p1, address p2, uint256 p3) internal view {\\n\\t\\t_sendLogPayload(abi.encodeWithSignature(\\\"log(address,string,address,uint256)\\\", p0, p1, p2, p3));\\n\\t}\\n\\n\\tfunction log(address p0, string memory p1, address p2, string memory p3) internal view {\\n\\t\\t_sendLogPayload(abi.encodeWithSignature(\\\"log(address,string,address,string)\\\", p0, p1, p2, p3));\\n\\t}\\n\\n\\tfunction log(address p0, string memory p1, address p2, bool p3) internal view {\\n\\t\\t_sendLogPayload(abi.encodeWithSignature(\\\"log(address,string,address,bool)\\\", p0, p1, p2, p3));\\n\\t}\\n\\n\\tfunction log(address p0, string memory p1, address p2, address p3) internal view {\\n\\t\\t_sendLogPayload(abi.encodeWithSignature(\\\"log(address,string,address,address)\\\", p0, p1, p2, p3));\\n\\t}\\n\\n\\tfunction log(address p0, bool p1, uint256 p2, uint256 p3) internal view {\\n\\t\\t_sendLogPayload(abi.encodeWithSignature(\\\"log(address,bool,uint256,uint256)\\\", p0, p1, p2, p3));\\n\\t}\\n\\n\\tfunction log(address p0, bool p1, uint256 p2, string memory p3) internal view {\\n\\t\\t_sendLogPayload(abi.encodeWithSignature(\\\"log(address,bool,uint256,string)\\\", p0, p1, p2, p3));\\n\\t}\\n\\n\\tfunction log(address p0, bool p1, uint256 p2, bool p3) internal view {\\n\\t\\t_sendLogPayload(abi.encodeWithSignature(\\\"log(address,bool,uint256,bool)\\\", p0, p1, p2, p3));\\n\\t}\\n\\n\\tfunction log(address p0, bool p1, uint256 p2, address p3) internal view {\\n\\t\\t_sendLogPayload(abi.encodeWithSignature(\\\"log(address,bool,uint256,address)\\\", p0, p1, p2, p3));\\n\\t}\\n\\n\\tfunction log(address p0, bool p1, string memory p2, uint256 p3) internal view {\\n\\t\\t_sendLogPayload(abi.encodeWithSignature(\\\"log(address,bool,string,uint256)\\\", p0, p1, p2, p3));\\n\\t}\\n\\n\\tfunction log(address p0, bool p1, string memory p2, string memory p3) internal view {\\n\\t\\t_sendLogPayload(abi.encodeWithSignature(\\\"log(address,bool,string,string)\\\", p0, p1, p2, p3));\\n\\t}\\n\\n\\tfunction log(address p0, bool p1, string memory p2, bool p3) internal view {\\n\\t\\t_sendLogPayload(abi.encodeWithSignature(\\\"log(address,bool,string,bool)\\\", p0, p1, p2, p3));\\n\\t}\\n\\n\\tfunction log(address p0, bool p1, string memory p2, address p3) internal view {\\n\\t\\t_sendLogPayload(abi.encodeWithSignature(\\\"log(address,bool,string,address)\\\", p0, p1, p2, p3));\\n\\t}\\n\\n\\tfunction log(address p0, bool p1, bool p2, uint256 p3) internal view {\\n\\t\\t_sendLogPayload(abi.encodeWithSignature(\\\"log(address,bool,bool,uint256)\\\", p0, p1, p2, p3));\\n\\t}\\n\\n\\tfunction log(address p0, bool p1, bool p2, string memory p3) internal view {\\n\\t\\t_sendLogPayload(abi.encodeWithSignature(\\\"log(address,bool,bool,string)\\\", p0, p1, p2, p3));\\n\\t}\\n\\n\\tfunction log(address p0, bool p1, bool p2, bool p3) internal view {\\n\\t\\t_sendLogPayload(abi.encodeWithSignature(\\\"log(address,bool,bool,bool)\\\", p0, p1, p2, p3));\\n\\t}\\n\\n\\tfunction log(address p0, bool p1, bool p2, address p3) internal view {\\n\\t\\t_sendLogPayload(abi.encodeWithSignature(\\\"log(address,bool,bool,address)\\\", p0, p1, p2, p3));\\n\\t}\\n\\n\\tfunction log(address p0, bool p1, address p2, uint256 p3) internal view {\\n\\t\\t_sendLogPayload(abi.encodeWithSignature(\\\"log(address,bool,address,uint256)\\\", p0, p1, p2, p3));\\n\\t}\\n\\n\\tfunction log(address p0, bool p1, address p2, string memory p3) internal view {\\n\\t\\t_sendLogPayload(abi.encodeWithSignature(\\\"log(address,bool,address,string)\\\", p0, p1, p2, p3));\\n\\t}\\n\\n\\tfunction log(address p0, bool p1, address p2, bool p3) internal view {\\n\\t\\t_sendLogPayload(abi.encodeWithSignature(\\\"log(address,bool,address,bool)\\\", p0, p1, p2, p3));\\n\\t}\\n\\n\\tfunction log(address p0, bool p1, address p2, address p3) internal view {\\n\\t\\t_sendLogPayload(abi.encodeWithSignature(\\\"log(address,bool,address,address)\\\", p0, p1, p2, p3));\\n\\t}\\n\\n\\tfunction log(address p0, address p1, uint256 p2, uint256 p3) internal view {\\n\\t\\t_sendLogPayload(abi.encodeWithSignature(\\\"log(address,address,uint256,uint256)\\\", p0, p1, p2, p3));\\n\\t}\\n\\n\\tfunction log(address p0, address p1, uint256 p2, string memory p3) internal view {\\n\\t\\t_sendLogPayload(abi.encodeWithSignature(\\\"log(address,address,uint256,string)\\\", p0, p1, p2, p3));\\n\\t}\\n\\n\\tfunction log(address p0, address p1, uint256 p2, bool p3) internal view {\\n\\t\\t_sendLogPayload(abi.encodeWithSignature(\\\"log(address,address,uint256,bool)\\\", p0, p1, p2, p3));\\n\\t}\\n\\n\\tfunction log(address p0, address p1, uint256 p2, address p3) internal view {\\n\\t\\t_sendLogPayload(abi.encodeWithSignature(\\\"log(address,address,uint256,address)\\\", p0, p1, p2, p3));\\n\\t}\\n\\n\\tfunction log(address p0, address p1, string memory p2, uint256 p3) internal view {\\n\\t\\t_sendLogPayload(abi.encodeWithSignature(\\\"log(address,address,string,uint256)\\\", p0, p1, p2, p3));\\n\\t}\\n\\n\\tfunction log(address p0, address p1, string memory p2, string memory p3) internal view {\\n\\t\\t_sendLogPayload(abi.encodeWithSignature(\\\"log(address,address,string,string)\\\", p0, p1, p2, p3));\\n\\t}\\n\\n\\tfunction log(address p0, address p1, string memory p2, bool p3) internal view {\\n\\t\\t_sendLogPayload(abi.encodeWithSignature(\\\"log(address,address,string,bool)\\\", p0, p1, p2, p3));\\n\\t}\\n\\n\\tfunction log(address p0, address p1, string memory p2, address p3) internal view {\\n\\t\\t_sendLogPayload(abi.encodeWithSignature(\\\"log(address,address,string,address)\\\", p0, p1, p2, p3));\\n\\t}\\n\\n\\tfunction log(address p0, address p1, bool p2, uint256 p3) internal view {\\n\\t\\t_sendLogPayload(abi.encodeWithSignature(\\\"log(address,address,bool,uint256)\\\", p0, p1, p2, p3));\\n\\t}\\n\\n\\tfunction log(address p0, address p1, bool p2, string memory p3) internal view {\\n\\t\\t_sendLogPayload(abi.encodeWithSignature(\\\"log(address,address,bool,string)\\\", p0, p1, p2, p3));\\n\\t}\\n\\n\\tfunction log(address p0, address p1, bool p2, bool p3) internal view {\\n\\t\\t_sendLogPayload(abi.encodeWithSignature(\\\"log(address,address,bool,bool)\\\", p0, p1, p2, p3));\\n\\t}\\n\\n\\tfunction log(address p0, address p1, bool p2, address p3) internal view {\\n\\t\\t_sendLogPayload(abi.encodeWithSignature(\\\"log(address,address,bool,address)\\\", p0, p1, p2, p3));\\n\\t}\\n\\n\\tfunction log(address p0, address p1, address p2, uint256 p3) internal view {\\n\\t\\t_sendLogPayload(abi.encodeWithSignature(\\\"log(address,address,address,uint256)\\\", p0, p1, p2, p3));\\n\\t}\\n\\n\\tfunction log(address p0, address p1, address p2, string memory p3) internal view {\\n\\t\\t_sendLogPayload(abi.encodeWithSignature(\\\"log(address,address,address,string)\\\", p0, p1, p2, p3));\\n\\t}\\n\\n\\tfunction log(address p0, address p1, address p2, bool p3) internal view {\\n\\t\\t_sendLogPayload(abi.encodeWithSignature(\\\"log(address,address,address,bool)\\\", p0, p1, p2, p3));\\n\\t}\\n\\n\\tfunction log(address p0, address p1, address p2, address p3) internal view {\\n\\t\\t_sendLogPayload(abi.encodeWithSignature(\\\"log(address,address,address,address)\\\", p0, p1, p2, p3));\\n\\t}\\n\\n}\\n\"},\"contracts/interfaces/IDiamond.sol\":{\"content\":\"// SPDX-License-Identifier: CC0-1.0\\npragma solidity ^0.8.0;\\n\\n/******************************************************************************\\\\\\n* Author: Nick Mudge <nick@perfectabstractions.com>, Twitter/Github: @mudgen\\n* EIP-2535 Diamonds\\n/******************************************************************************/\\n\\ninterface IDiamond {\\n    enum FacetCutAction {Add, Replace, Remove}\\n    // Add=0, Replace=1, Remove=2\\n\\n    struct FacetCut {\\n        address facetAddress;\\n        FacetCutAction action;\\n        bytes4[] functionSelectors;\\n    }\\n\\n    event DiamondCut(FacetCut[] _diamondCut, address _init, bytes _calldata);\\n}\"},\"contracts/interfaces/IDiamondCut.sol\":{\"content\":\"// SPDX-License-Identifier: CC0-1.0\\npragma solidity ^0.8.0;\\n\\n/******************************************************************************\\\\\\n* Author: Nick Mudge <nick@perfectabstractions.com>, Twitter/Github: @mudgen\\n* EIP-2535 Diamonds\\n/******************************************************************************/\\n\\nimport { IDiamond } from \\\"./IDiamond.sol\\\";\\n\\ninterface IDiamondCut is IDiamond {    \\n\\n    /// @notice Add/replace/remove any number of functions and optionally execute\\n    ///         a function with delegatecall\\n    /// @param _diamondCut Contains the facet addresses and function selectors\\n    /// @param _init The address of the contract or facet to execute _calldata\\n    /// @param _calldata A function call, including function selector and arguments\\n    ///                  _calldata is executed with delegatecall on _init\\n    function diamondCut(\\n        FacetCut[] calldata _diamondCut,\\n        address _init,\\n        bytes calldata _calldata\\n    ) external;    \\n}\\n\"}},\"settings\":{\"optimizer\":{\"enabled\":false,\"runs\":200},\"outputSelection\":{\"*\":{\"*\":[\"abi\",\"evm.bytecode\",\"evm.deployedBytecode\",\"evm.methodIdentifiers\",\"metadata\"],\"\":[\"ast\"]}}}}"}}