{"_format":"hh-sol-artifact-1","contractName":"OwnershipFacet","sourceName":"contracts/facets/OwnershipFacet.sol","abi":[{"inputs":[{"internalType":"address","name":"_user","type":"address"},{"internalType":"address","name":"_contractOwner","type":"address"}],"name":"NotContractOwner","type":"error"},{"inputs":[],"name":"diamondOwner","outputs":[{"internalType":"address","name":"owner_","type":"address"}],"stateMutability":"view","type":"function"},{"inputs":[{"internalType":"address","name":"_newOwner","type":"address"}],"name":"transferDiamondOwnership","outputs":[],"stateMutability":"nonpayable","type":"function"}],"bytecode":"0x608060405234801561001057600080fd5b506103b2806100206000396000f3fe608060405234801561001057600080fd5b50600436106100365760003560e01c80634b21d9981461003b578063e4efe11714610057575b600080fd5b610055600480360381019061005091906102fc565b610075565b005b61005f610089565b60405161006c9190610338565b60405180910390f35b61007d610098565b61008681610162565b50565b6000610093610239565b905090565b6100a061026c565b60030160009054906101000a900473ffffffffffffffffffffffffffffffffffffffff1673ffffffffffffffffffffffffffffffffffffffff163373ffffffffffffffffffffffffffffffffffffffff161461016057336100ff61026c565b60030160009054906101000a900473ffffffffffffffffffffffffffffffffffffffff166040517fff4127cb000000000000000000000000000000000000000000000000000000008152600401610157929190610353565b60405180910390fd5b565b600061016c61026c565b905060008160030160009054906101000a900473ffffffffffffffffffffffffffffffffffffffff169050828260030160006101000a81548173ffffffffffffffffffffffffffffffffffffffff021916908373ffffffffffffffffffffffffffffffffffffffff1602179055508273ffffffffffffffffffffffffffffffffffffffff168173ffffffffffffffffffffffffffffffffffffffff167f8be0079c531659141344cd1fd0a4f28419497f9722a3daafe3b4186f6b6457e060405160405180910390a3505050565b600061024361026c565b60030160009054906101000a900473ffffffffffffffffffffffffffffffffffffffff16905090565b6000807fc8fcad8db84d3cc18b4c41d551ea0ee66dd599cde068d998e57d5e09332c131c90508091505090565b600080fd5b600073ffffffffffffffffffffffffffffffffffffffff82169050919050565b60006102c98261029e565b9050919050565b6102d9816102be565b81146102e457600080fd5b50565b6000813590506102f6816102d0565b92915050565b60006020828403121561031257610311610299565b5b6000610320848285016102e7565b91505092915050565b610332816102be565b82525050565b600060208201905061034d6000830184610329565b92915050565b60006040820190506103686000830185610329565b6103756020830184610329565b939250505056fea26469706673582212203c17c5ba1a99418ac5d1f3cdd9dbbd86642f40f88150e8b14c98189aff16effa64736f6c63430008110033","linkReferences":{},"deployedLinkReferences":{},"source":{"solcVersion":"0.8.17+commit.8df45f5f","input":"{\"language\":\"Solidity\",\"sources\":{\"contracts/facets/OwnershipFacet.sol\":{\"content\":\"// SPDX-License-Identifier: CC0-1.0\\npragma solidity ^0.8.0;\\n\\n/******************************************************************************\\\\\\n* Author: Nick Mudge <nick@perfectabstractions.com>, Twitter/Github: @mudgen\\n* Author: Daniel Beal <git@dbeal.dev>, Github: @dbeal-eth\\n* EIP-2535 Diamonds\\n/******************************************************************************/\\n\\nimport { LibDiamond } from \\\"../libraries/LibDiamond.sol\\\";\\n\\ncontract OwnershipFacet {\\n    function transferDiamondOwnership(address _newOwner) external {\\n        LibDiamond.enforceIsContractOwner();\\n        LibDiamond.setContractOwner(_newOwner);\\n    }\\n\\n    function diamondOwner() external view returns (address owner_) {\\n        owner_ = LibDiamond.contractOwner();\\n    }\\n}\\n\"},\"contracts/libraries/LibDiamond.sol\":{\"content\":\"// SPDX-License-Identifier: CC0-1.0\\npragma solidity ^0.8.0;\\n\\n/******************************************************************************\\\\\\n* Author: Nick Mudge <nick@perfectabstractions.com>, Twitter/Github: @mudgen\\n* EIP-2535 Diamonds\\n/******************************************************************************/\\nimport { IDiamond } from \\\"../interfaces/IDiamond.sol\\\";\\nimport { IDiamondCut } from \\\"../interfaces/IDiamondCut.sol\\\";\\n\\n// Remember to add the loupe functions from DiamondLoupeFacet to the diamond.\\n// The loupe functions are required by the EIP2535 Diamonds standard\\n\\nerror NoSelectorsGivenToAdd();\\nerror NotContractOwner(address _user, address _contractOwner);\\nerror NoSelectorsProvidedForFacetForCut(address _facetAddress);\\nerror CannotAddSelectorsToZeroAddress(bytes4[] _selectors);\\nerror NoBytecodeAtAddress(address _contractAddress, string _message);\\nerror IncorrectFacetCutAction(uint8 _action);\\nerror CannotAddFunctionToDiamondThatAlreadyExists(bytes4 _selector);\\nerror CannotReplaceFunctionsFromFacetWithZeroAddress(bytes4[] _selectors);\\nerror CannotReplaceImmutableFunction(bytes4 _selector);\\nerror CannotReplaceFunctionWithTheSameFunctionFromTheSameFacet(bytes4 _selector);\\nerror CannotReplaceFunctionThatDoesNotExists(bytes4 _selector);\\nerror RemoveFacetAddressMustBeZeroAddress(address _facetAddress);\\nerror CannotRemoveFunctionThatDoesNotExist(bytes4 _selector);\\nerror CannotRemoveImmutableFunction(bytes4 _selector);\\nerror InitializationFunctionReverted(address _initializationContractAddress, bytes _calldata);\\n\\nlibrary LibDiamond {\\n    bytes32 constant DIAMOND_STORAGE_POSITION = keccak256(\\\"diamond.standard.diamond.storage\\\");\\n\\n    struct FacetAddressAndSelectorPosition {\\n        address facetAddress;\\n        uint16 selectorPosition;\\n    }\\n\\n    struct DiamondStorage {\\n        // function selector => facet address and selector position in selectors array\\n        mapping(bytes4 => FacetAddressAndSelectorPosition) facetAddressAndSelectorPosition;\\n        bytes4[] selectors;\\n        mapping(bytes4 => bool) supportedInterfaces;\\n        // owner of the contract\\n        address contractOwner;\\n    }\\n\\n    function diamondStorage() internal pure returns (DiamondStorage storage ds) {\\n        bytes32 position = DIAMOND_STORAGE_POSITION;\\n        assembly {\\n            ds.slot := position\\n        }\\n    }\\n\\n    event OwnershipTransferred(address indexed previousOwner, address indexed newOwner);\\n\\n    function setContractOwner(address _newOwner) internal {\\n        DiamondStorage storage ds = diamondStorage();\\n        address previousOwner = ds.contractOwner;\\n        ds.contractOwner = _newOwner;\\n        emit OwnershipTransferred(previousOwner, _newOwner);\\n    }\\n\\n    function contractOwner() internal view returns (address contractOwner_) {\\n        contractOwner_ = diamondStorage().contractOwner;\\n    }\\n\\n    function enforceIsContractOwner() internal view {\\n        if(msg.sender != diamondStorage().contractOwner) {\\n            revert NotContractOwner(msg.sender, diamondStorage().contractOwner);\\n        }        \\n    }\\n\\n    event DiamondCut(IDiamondCut.FacetCut[] _diamondCut, address _init, bytes _calldata);\\n\\n    // Internal function version of diamondCut\\n    function diamondCut(\\n        IDiamondCut.FacetCut[] memory _diamondCut,\\n        address _init,\\n        bytes memory _calldata\\n    ) internal {\\n        for (uint256 facetIndex; facetIndex < _diamondCut.length; facetIndex++) {\\n            bytes4[] memory functionSelectors = _diamondCut[facetIndex].functionSelectors;\\n            address facetAddress = _diamondCut[facetIndex].facetAddress;\\n            if(functionSelectors.length == 0) {\\n                revert NoSelectorsProvidedForFacetForCut(facetAddress);\\n            }\\n            IDiamondCut.FacetCutAction action = _diamondCut[facetIndex].action;\\n            if (action == IDiamond.FacetCutAction.Add) {\\n                addFunctions(facetAddress, functionSelectors);\\n            } else if (action == IDiamond.FacetCutAction.Replace) {\\n                replaceFunctions(facetAddress, functionSelectors);\\n            } else if (action == IDiamond.FacetCutAction.Remove) {\\n                removeFunctions(facetAddress, functionSelectors);\\n            } else {\\n                revert IncorrectFacetCutAction(uint8(action));\\n            }\\n        }\\n        emit DiamondCut(_diamondCut, _init, _calldata);\\n        initializeDiamondCut(_init, _calldata);\\n    }\\n\\n    function addFunctions(address _facetAddress, bytes4[] memory _functionSelectors) internal {        \\n        if(_facetAddress == address(0)) {\\n            revert CannotAddSelectorsToZeroAddress(_functionSelectors);\\n        }\\n        DiamondStorage storage ds = diamondStorage();\\n        uint16 selectorCount = uint16(ds.selectors.length);                \\n        enforceHasContractCode(_facetAddress, \\\"LibDiamondCut: Add facet has no code\\\");\\n        for (uint256 selectorIndex; selectorIndex < _functionSelectors.length; selectorIndex++) {\\n            bytes4 selector = _functionSelectors[selectorIndex];\\n            address oldFacetAddress = ds.facetAddressAndSelectorPosition[selector].facetAddress;\\n            if(oldFacetAddress != address(0)) {\\n                revert CannotAddFunctionToDiamondThatAlreadyExists(selector);\\n            }            \\n            ds.facetAddressAndSelectorPosition[selector] = FacetAddressAndSelectorPosition(_facetAddress, selectorCount);\\n            ds.selectors.push(selector);\\n            selectorCount++;\\n        }\\n    }\\n\\n    function replaceFunctions(address _facetAddress, bytes4[] memory _functionSelectors) internal {        \\n        DiamondStorage storage ds = diamondStorage();\\n        if(_facetAddress == address(0)) {\\n            revert CannotReplaceFunctionsFromFacetWithZeroAddress(_functionSelectors);\\n        }\\n        enforceHasContractCode(_facetAddress, \\\"LibDiamondCut: Replace facet has no code\\\");\\n        for (uint256 selectorIndex; selectorIndex < _functionSelectors.length; selectorIndex++) {\\n            bytes4 selector = _functionSelectors[selectorIndex];\\n            address oldFacetAddress = ds.facetAddressAndSelectorPosition[selector].facetAddress;\\n            // can't replace immutable functions -- functions defined directly in the diamond in this case\\n            if(oldFacetAddress == address(this)) {\\n                revert CannotReplaceImmutableFunction(selector);\\n            }\\n            if(oldFacetAddress == _facetAddress) {\\n                revert CannotReplaceFunctionWithTheSameFunctionFromTheSameFacet(selector);\\n            }\\n            if(oldFacetAddress == address(0)) {\\n                revert CannotReplaceFunctionThatDoesNotExists(selector);\\n            }\\n            // replace old facet address\\n            ds.facetAddressAndSelectorPosition[selector].facetAddress = _facetAddress;\\n        }\\n    }\\n\\n    function removeFunctions(address _facetAddress, bytes4[] memory _functionSelectors) internal {        \\n        DiamondStorage storage ds = diamondStorage();\\n        uint256 selectorCount = ds.selectors.length;\\n        if(_facetAddress != address(0)) {\\n            revert RemoveFacetAddressMustBeZeroAddress(_facetAddress);\\n        }        \\n        for (uint256 selectorIndex; selectorIndex < _functionSelectors.length; selectorIndex++) {\\n            bytes4 selector = _functionSelectors[selectorIndex];\\n            FacetAddressAndSelectorPosition memory oldFacetAddressAndSelectorPosition = ds.facetAddressAndSelectorPosition[selector];\\n            if(oldFacetAddressAndSelectorPosition.facetAddress == address(0)) {\\n                revert CannotRemoveFunctionThatDoesNotExist(selector);\\n            }\\n            \\n            \\n            // can't remove immutable functions -- functions defined directly in the diamond\\n            if(oldFacetAddressAndSelectorPosition.facetAddress == address(this)) {\\n                revert CannotRemoveImmutableFunction(selector);\\n            }\\n            // replace selector with last selector\\n            selectorCount--;\\n            if (oldFacetAddressAndSelectorPosition.selectorPosition != selectorCount) {\\n                bytes4 lastSelector = ds.selectors[selectorCount];\\n                ds.selectors[oldFacetAddressAndSelectorPosition.selectorPosition] = lastSelector;\\n                ds.facetAddressAndSelectorPosition[lastSelector].selectorPosition = oldFacetAddressAndSelectorPosition.selectorPosition;\\n            }\\n            // delete last selector\\n            ds.selectors.pop();\\n            delete ds.facetAddressAndSelectorPosition[selector];\\n        }\\n    }\\n\\n    function initializeDiamondCut(address _init, bytes memory _calldata) internal {\\n        if (_init == address(0)) {\\n            return;\\n        }\\n        enforceHasContractCode(_init, \\\"LibDiamondCut: _init address has no code\\\");        \\n        (bool success, bytes memory error) = _init.delegatecall(_calldata);\\n        if (!success) {\\n            if (error.length > 0) {\\n                // bubble up error\\n                /// @solidity memory-safe-assembly\\n                assembly {\\n                    let returndata_size := mload(error)\\n                    revert(add(32, error), returndata_size)\\n                }\\n            } else {\\n                revert InitializationFunctionReverted(_init, _calldata);\\n            }\\n        }        \\n    }\\n\\n    function enforceHasContractCode(address _contract, string memory _errorMessage) internal view {\\n        uint256 contractSize;\\n        assembly {\\n            contractSize := extcodesize(_contract)\\n        }\\n        if(contractSize == 0) {\\n            revert NoBytecodeAtAddress(_contract, _errorMessage);\\n        }        \\n    }\\n}\\n\"},\"contracts/interfaces/IDiamond.sol\":{\"content\":\"// SPDX-License-Identifier: CC0-1.0\\npragma solidity ^0.8.0;\\n\\n/******************************************************************************\\\\\\n* Author: Nick Mudge <nick@perfectabstractions.com>, Twitter/Github: @mudgen\\n* EIP-2535 Diamonds\\n/******************************************************************************/\\n\\ninterface IDiamond {\\n    enum FacetCutAction {Add, Replace, Remove}\\n    // Add=0, Replace=1, Remove=2\\n\\n    struct FacetCut {\\n        address facetAddress;\\n        FacetCutAction action;\\n        bytes4[] functionSelectors;\\n    }\\n\\n    event DiamondCut(FacetCut[] _diamondCut, address _init, bytes _calldata);\\n}\"},\"contracts/interfaces/IDiamondCut.sol\":{\"content\":\"// SPDX-License-Identifier: CC0-1.0\\npragma solidity ^0.8.0;\\n\\n/******************************************************************************\\\\\\n* Author: Nick Mudge <nick@perfectabstractions.com>, Twitter/Github: @mudgen\\n* EIP-2535 Diamonds\\n/******************************************************************************/\\n\\nimport { IDiamond } from \\\"./IDiamond.sol\\\";\\n\\ninterface IDiamondCut is IDiamond {    \\n\\n    /// @notice Add/replace/remove any number of functions and optionally execute\\n    ///         a function with delegatecall\\n    /// @param _diamondCut Contains the facet addresses and function selectors\\n    /// @param _init The address of the contract or facet to execute _calldata\\n    /// @param _calldata A function call, including function selector and arguments\\n    ///                  _calldata is executed with delegatecall on _init\\n    function diamondCut(\\n        FacetCut[] calldata _diamondCut,\\n        address _init,\\n        bytes calldata _calldata\\n    ) external;    \\n}\\n\"}},\"settings\":{\"optimizer\":{\"enabled\":false,\"runs\":200},\"outputSelection\":{\"*\":{\"*\":[\"abi\",\"evm.bytecode\",\"evm.deployedBytecode\",\"evm.methodIdentifiers\",\"metadata\"],\"\":[\"ast\"]}}}}"}}