{
  "abi": [
    {
      "inputs": [
        {
          "internalType": "string",
          "name": "_greeting",
          "type": "string"
        }
      ],
      "stateMutability": "nonpayable",
      "type": "constructor"
    },
    {
      "anonymous": false,
      "inputs": [
        {
          "indexed": false,
          "internalType": "address",
          "name": "cloned",
          "type": "address"
        }
      ],
      "name": "NewClonedGreeter",
      "type": "event"
    },
    {
      "inputs": [],
      "name": "doCloning",
      "outputs": [],
      "stateMutability": "nonpayable",
      "type": "function"
    },
    {
      "inputs": [],
      "name": "greet",
      "outputs": [
        {
          "internalType": "string",
          "name": "",
          "type": "string"
        }
      ],
      "stateMutability": "view",
      "type": "function"
    },
    {
      "inputs": [],
      "name": "greeting",
      "outputs": [
        {
          "internalType": "string",
          "name": "",
          "type": "string"
        }
      ],
      "stateMutability": "view",
      "type": "function"
    },
    {
      "inputs": [
        {
          "internalType": "string",
          "name": "_greeting",
          "type": "string"
        }
      ],
      "name": "setGreeting",
      "outputs": [],
      "stateMutability": "nonpayable",
      "type": "function"
    }
  ],
  "bytecode": {
    "object": "0x60806040523480156200001157600080fd5b506040516200133038038062001330833981016040819052620000349162000135565b620000646040518060600160405280602281526020016200130e60229139826200007a60201b620003ae1760201c565b60006200007282826200027c565b5050620003a8565b620000c782826040516024016200009392919062000376565b60408051601f198184030181529190526020810180516001600160e01b03908116634b5c427760e01b17909152620000cb16565b5050565b80516a636f6e736f6c652e6c6f67602083016000808483855afa5050505050565b634e487b7160e01b600052604160045260246000fd5b60005b838110156200011f57818101518382015260200162000105565b838111156200012f576000848401525b50505050565b6000602082840312156200014857600080fd5b81516001600160401b03808211156200016057600080fd5b818401915084601f8301126200017557600080fd5b8151818111156200018a576200018a620000ec565b604051601f8201601f19908116603f01168101908382118183101715620001b557620001b5620000ec565b81604052828152876020848701011115620001cf57600080fd5b620001e283602083016020880162000102565b979650505050505050565b600181811c908216806200020257607f821691505b6020821081036200022357634e487b7160e01b600052602260045260246000fd5b50919050565b601f8211156200027757600081815260208120601f850160051c81016020861015620002525750805b601f850160051c820191505b8181101562000273578281556001016200025e565b5050505b505050565b81516001600160401b03811115620002985762000298620000ec565b620002b081620002a98454620001ed565b8462000229565b602080601f831160018114620002e85760008415620002cf5750858301515b600019600386901b1c1916600185901b17855562000273565b600085815260208120601f198616915b828110156200031957888601518255948401946001909101908401620002f8565b5085821015620003385787850151600019600388901b60f8161c191681555b5050505050600190811b01905550565b600081518084526200036281602086016020860162000102565b601f01601f19169290920160200192915050565b6040815260006200038b604083018562000348565b82810360208401526200039f818562000348565b95945050505050565b610f5680620003b86000396000f3fe60806040523480156200001157600080fd5b5060043610620000525760003560e01c8063a41368621462000057578063cfae32171462000070578063d73926431462000092578063ef690cc0146200009c575b600080fd5b6200006e62000068366004620004d6565b620000a6565b005b6200007a62000170565b604051620000899190620005e1565b60405180910390f35b6200006e62000268565b6200007a62000318565b6200015e60405180606001604052806023815260200162000efe6023913960008054620000d390620005fd565b80601f01602080910402602001604051908101604052809291908181526020018280546200010190620005fd565b8015620001525780601f10620001265761010080835404028352916020019162000152565b820191906000526020600020905b8154815290600101906020018083116200013457829003601f168201915b505050505083620003f7565b60006200016c82826200068b565b5050565b606073__$0a2af6d4636c4052c1cffd1dab0da5fd19$__63f71c1efc6040518163ffffffff1660e01b815260040160006040518083038186803b158015620001b757600080fd5b505af4158015620001cc573d6000803e3d6000fd5b5050505060008054620001df90620005fd565b80601f01602080910402602001604051908101604052809291908181526020018280546200020d90620005fd565b80156200025e5780601f1062000232576101008083540402835291602001916200025e565b820191906000526020600020905b8154815290600101906020018083116200024057829003601f168201915b5050505050905090565b6200029b6040518060400160405280601081526020016f43414c4c45442054484520434c4f4e4560801b81525062000447565b600080604051620002ac90620004b2565b620002b8919062000758565b604051809103906000f080158015620002d5573d6000803e3d6000fd5b506040516001600160a01b03821681529091507f72f478e9ba32657a513692cebf91dec298e080c49b949de9fedbfce95923906d9060200160405180910390a150565b600080546200032790620005fd565b80601f01602080910402602001604051908101604052809291908181526020018280546200035590620005fd565b8015620003a65780601f106200037a57610100808354040283529160200191620003a6565b820191906000526020600020905b8154815290600101906020018083116200038857829003601f168201915b505050505081565b6200016c8282604051602401620003c7929190620007eb565b60408051601f198184030181529190526020810180516001600160e01b0316634b5c427760e01b17905262000491565b6200044283838360405160240162000412939291906200081d565b60408051601f198184030181529190526020810180516001600160e01b0316632ced7cef60e01b17905262000491565b505050565b6200048e816040516024016200045e9190620005e1565b60408051601f198184030181529190526020810180516001600160e01b031663104c13eb60e21b17905262000491565b50565b80516a636f6e736f6c652e6c6f67602083016000808483855afa5050505050565b610697806200086783390190565b634e487b7160e01b600052604160045260246000fd5b600060208284031215620004e957600080fd5b813567ffffffffffffffff808211156200050257600080fd5b818401915084601f8301126200051757600080fd5b8135818111156200052c576200052c620004c0565b604051601f8201601f19908116603f01168101908382118183101715620005575762000557620004c0565b816040528281528760208487010111156200057157600080fd5b826020860160208301376000928101602001929092525095945050505050565b6000815180845260005b81811015620005b9576020818501810151868301820152016200059b565b81811115620005cc576000602083870101525b50601f01601f19169290920160200192915050565b602081526000620005f6602083018462000591565b9392505050565b600181811c908216806200061257607f821691505b6020821081036200063357634e487b7160e01b600052602260045260246000fd5b50919050565b601f8211156200044257600081815260208120601f850160051c81016020861015620006625750805b601f850160051c820191505b8181101562000683578281556001016200066e565b505050505050565b815167ffffffffffffffff811115620006a857620006a8620004c0565b620006c081620006b98454620005fd565b8462000639565b602080601f831160018114620006f85760008415620006df5750858301515b600019600386901b1c1916600185901b17855562000683565b600085815260208120601f198616915b82811015620007295788860151825594840194600190910190840162000708565b5085821015620007485787850151600019600388901b60f8161c191681555b5050505050600190811b01905550565b60006020808352600084546200076e81620005fd565b80848701526040600180841660008114620007925760018114620007ad57620007dd565b60ff1985168984015283151560051b890183019550620007dd565b896000528660002060005b85811015620007d55781548b8201860152908301908801620007b8565b8a0184019650505b509398975050505050505050565b60408152600062000800604083018562000591565b828103602084015262000814818562000591565b95945050505050565b60608152600062000832606083018662000591565b828103602084015262000846818662000591565b905082810360408401526200085c818562000591565b969550505050505056fe608060405234801561001057600080fd5b5060405161069738038061069783398101604081905261002f91610122565b61005b60405180606001604052806028815260200161066f602891398261006e60201b6101811760201c565b60006100678282610257565b5050610370565b6100b78282604051602401610084929190610342565b60408051601f198184030181529190526020810180516001600160e01b03908116634b5c427760e01b179091526100bb16565b5050565b80516a636f6e736f6c652e6c6f67602083016000808483855afa5050505050565b634e487b7160e01b600052604160045260246000fd5b60005b8381101561010d5781810151838201526020016100f5565b8381111561011c576000848401525b50505050565b60006020828403121561013457600080fd5b81516001600160401b038082111561014b57600080fd5b818401915084601f83011261015f57600080fd5b815181811115610171576101716100dc565b604051601f8201601f19908116603f01168101908382118183101715610199576101996100dc565b816040528281528760208487010111156101b257600080fd5b6101c38360208301602088016100f2565b979650505050505050565b600181811c908216806101e257607f821691505b60208210810361020257634e487b7160e01b600052602260045260246000fd5b50919050565b601f82111561025257600081815260208120601f850160051c8101602086101561022f5750805b601f850160051c820191505b8181101561024e5782815560010161023b565b5050505b505050565b81516001600160401b03811115610270576102706100dc565b6102848161027e84546101ce565b84610208565b602080601f8311600181146102b957600084156102a15750858301515b600019600386901b1c1916600185901b17855561024e565b600085815260208120601f198616915b828110156102e8578886015182559484019460019091019084016102c9565b50858210156103065787850151600019600388901b60f8161c191681555b5050505050600190811b01905550565b6000815180845261032e8160208601602086016100f2565b601f01601f19169290920160200192915050565b6040815260006103556040830185610316565b82810360208401526103678185610316565b95945050505050565b6102f08061037f6000396000f3fe608060405234801561001057600080fd5b50600436106100365760003560e01c8063cfae32171461003b578063ef690cc014610059575b600080fd5b610043610061565b6040516100509190610238565b60405180910390f35b6100436100f3565b60606000805461007090610252565b80601f016020809104026020016040519081016040528092919081815260200182805461009c90610252565b80156100e95780601f106100be576101008083540402835291602001916100e9565b820191906000526020600020905b8154815290600101906020018083116100cc57829003601f168201915b5050505050905090565b6000805461010090610252565b80601f016020809104026020016040519081016040528092919081815260200182805461012c90610252565b80156101795780601f1061014e57610100808354040283529160200191610179565b820191906000526020600020905b81548152906001019060200180831161015c57829003601f168201915b505050505081565b6101c6828260405160240161019792919061028c565b60408051601f198184030181529190526020810180516001600160e01b0316634b5c427760e01b1790526101ca565b5050565b80516a636f6e736f6c652e6c6f67602083016000808483855afa5050505050565b6000815180845260005b81811015610211576020818501810151868301820152016101f5565b81811115610223576000602083870101525b50601f01601f19169290920160200192915050565b60208152600061024b60208301846101eb565b9392505050565b600181811c9082168061026657607f821691505b60208210810361028657634e487b7160e01b600052602260045260246000fd5b50919050565b60408152600061029f60408301856101eb565b82810360208401526102b181856101eb565b9594505050505056fea26469706673582212201ede8f27623f6ab9e48dbba78c72c1eb4e95c531020806f5983be524e9bdb71764736f6c634300080f00334465706c6f79696e67206120436c6f6e6564477265657465722077697468206772656574696e673a4368616e67696e67206772656574696e672066726f6d202725732720746f2027257327a26469706673582212200d64b9e1571b0b84d30cc2e5bca2254f547fb4fa3e858a28b5651c31c7e59faa64736f6c634300080f00334465706c6f79696e67206120477265657465722077697468206772656574696e673a",
    "linkReferences": {
      "src/Library.sol": {
        "Library": [
          {
            "start": 1324,
            "length": 20
          }
        ]
      }
    }
  },
  "methodIdentifiers": {
    "doCloning()": "d7392643",
    "greet()": "cfae3217",
    "greeting()": "ef690cc0",
    "setGreeting(string)": "a4136862"
  },
  "id": 8
}