{
  "abi": [
    {
      "inputs": [
        {
          "internalType": "string",
          "name": "_greeting",
          "type": "string"
        }
      ],
      "stateMutability": "nonpayable",
      "type": "constructor"
    },
    {
      "inputs": [],
      "name": "greet",
      "outputs": [
        {
          "internalType": "string",
          "name": "",
          "type": "string"
        }
      ],
      "stateMutability": "view",
      "type": "function"
    },
    {
      "inputs": [],
      "name": "greeting",
      "outputs": [
        {
          "internalType": "string",
          "name": "",
          "type": "string"
        }
      ],
      "stateMutability": "view",
      "type": "function"
    }
  ],
  "bytecode": {
    "object": "0x608060405234801561001057600080fd5b5060405161068438038061068483398101604081905261002f91610116565b61005b60405180606001604052806028815260200161065c602891398261006e60201b6101811760201c565b6000610067828261024b565b5050610364565b6100b78282604051602401610084929190610336565b60408051601f198184030181529190526020810180516001600160e01b03908116634b5c427760e01b179091526100bb16565b5050565b80516a636f6e736f6c652e6c6f67602083016000808483855afa5050505050565b634e487b7160e01b600052604160045260246000fd5b60005b8381101561010d5781810151838201526020016100f5565b50506000910152565b60006020828403121561012857600080fd5b81516001600160401b038082111561013f57600080fd5b818401915084601f83011261015357600080fd5b815181811115610165576101656100dc565b604051601f8201601f19908116603f0116810190838211818310171561018d5761018d6100dc565b816040528281528760208487010111156101a657600080fd5b6101b78360208301602088016100f2565b979650505050505050565b600181811c908216806101d657607f821691505b6020821081036101f657634e487b7160e01b600052602260045260246000fd5b50919050565b601f82111561024657600081815260208120601f850160051c810160208610156102235750805b601f850160051c820191505b818110156102425782815560010161022f565b5050505b505050565b81516001600160401b03811115610264576102646100dc565b6102788161027284546101c2565b846101fc565b602080601f8311600181146102ad57600084156102955750858301515b600019600386901b1c1916600185901b178555610242565b600085815260208120601f198616915b828110156102dc578886015182559484019460019091019084016102bd565b50858210156102fa5787850151600019600388901b60f8161c191681555b5050505050600190811b01905550565b600081518084526103228160208601602086016100f2565b601f01601f19169290920160200192915050565b604081526000610349604083018561030a565b828103602084015261035b818561030a565b95945050505050565b6102e9806103736000396000f3fe608060405234801561001057600080fd5b50600436106100365760003560e01c8063cfae32171461003b578063ef690cc014610059575b600080fd5b610043610061565b6040516100509190610231565b60405180910390f35b6100436100f3565b6060600080546100709061024b565b80601f016020809104026020016040519081016040528092919081815260200182805461009c9061024b565b80156100e95780601f106100be576101008083540402835291602001916100e9565b820191906000526020600020905b8154815290600101906020018083116100cc57829003601f168201915b5050505050905090565b600080546101009061024b565b80601f016020809104026020016040519081016040528092919081815260200182805461012c9061024b565b80156101795780601f1061014e57610100808354040283529160200191610179565b820191906000526020600020905b81548152906001019060200180831161015c57829003601f168201915b505050505081565b6101c68282604051602401610197929190610285565b60408051601f198184030181529190526020810180516001600160e01b0316634b5c427760e01b1790526101ca565b5050565b80516a636f6e736f6c652e6c6f67602083016000808483855afa5050505050565b6000815180845260005b81811015610211576020818501810151868301820152016101f5565b506000602082860101526020601f19601f83011685010191505092915050565b60208152600061024460208301846101eb565b9392505050565b600181811c9082168061025f57607f821691505b60208210810361027f57634e487b7160e01b600052602260045260246000fd5b50919050565b60408152600061029860408301856101eb565b82810360208401526102aa81856101eb565b9594505050505056fea2646970667358221220b93b193027cb5159a1036f07a47dd6f9bf04875535060cc4a97ac06fc6ce438d64736f6c634300081000334465706c6f79696e67206120436c6f6e6564477265657465722077697468206772656574696e673a",
    "linkReferences": {}
  },
  "methodIdentifiers": {
    "greet()": "cfae3217",
    "greeting()": "ef690cc0"
  },
  "id": 18
}